:020000040800F2
:1000000000000220491F0008891B00088B1B000804
:100010008D1B00088F1B0008911B000800000000CA
:10002000000000000000000000000000931B00081A
:10003000951B000800000000971B0008991B000892
:10004000991F0008991F0008991F0008991F0008B0
:10005000991F0008991F0008991F0008991F0008A0
:10006000991F0008991F0008991F0008A11B00088C
:10007000B11B0008C11B0008991F0008991F000848
:10008000991F0008991F0008991F0008991F000870
:10009000991F0008991F0008991F0008991F000860
:1000A000991F0008991F0008991F0008991F000850
:1000B000991F0008991F0008991F0008991F000840
:1000C000991F0008991F0008991F0008991F000830
:1000D000991F0008D11B0008251C0008991F000863
:1000E000991F0008991F0008991F0008991F000810
:1000F000991F0008991F0008991F0008991F000800
:10010000991F0008991F0008991F0008991F0008EF
:10011000991F0008991F0008991F0008991F0008DF
:10012000991F0008991F0008991F0008991F0008CF
:10013000991F0008991F0008991F0008991F0008BF
:10014000991F0008991F0008991F0008991F0008AF
:10015000991F0008991F0008991F0008991F00089F
:10016000991F0008991F0008991F0008991F00088F
:10017000991F0008991F0008991F0008991F00087F
:10018000991F0008991F0008991F0008991F00086F
:10019000991F000800000000351C0008991F000886
:1001A000991F0008991F0008991F0008991F00084F
:1001B000991F0008991F0008991F0008991F00083F
:1001C000991F0008991F0008991F0008991F00082F
:0801D000991F0008991F0008A7
:1002000010B5054C237833B9044B13B10448AFF350
:1002100000800123237010BDB809002000000000F9
:1002200078B6000808B5034B1BB103490348AFF388
:10023000008008BD00000000BC09002078B600085E
:1002400081F0004102E000BF83F0004330B54FEA87
:1002500041044FEA430594EA050F08BF90EA020FF4
:100260001FBF54EA000C55EA020C7FEA645C7FEA87
:10027000655C00F0E2804FEA5454D4EB5555B8BFAA
:100280006D420CDD2C4480EA020281EA030382EA1B
:10029000000083EA010180EA020281EA0303362DAD
:1002A00088BF30BD11F0004F4FEA01314FF4801C80
:1002B0004CEA113102D0404261EB410113F0004F92
:1002C0004FEA03334CEA133302D0524263EB430349
:1002D00094EA050F00F0A780A4F10104D5F1200EE7
:1002E0000DDB02FA0EFC22FA05F2801841F1000142
:1002F00003FA0EF2801843FA05F359410EE0A5F116
:1003000020050EF1200E012A03FA0EFC28BF4CF046
:10031000020C43FA05F3C01851EBE37101F00045FC
:1003200007D54FF0000EDCF1000C7EEB00006EEB09
:100330000101B1F5801F1BD3B1F5001F0CD3490893
:100340005FEA30004FEA3C0C04F101044FEA4452EA
:1003500012F5800F80F09A80BCF1004F08BF5FEA71
:10036000500C50F1000041EB045141EA050130BD51
:100370005FEA4C0C404141EB0101013C28BFB1F563
:10038000801FE9D291F0000F04BF01460020B1FAAE
:1003900081F308BF2033A3F10B03B3F120020CDA81
:1003A0000C3208DD02F1140CC2F10C0201FA0CF05F
:1003B00021FA02F10CE002F11402D8BFC2F1200CC4
:1003C00001FA02F120FA0CFCDCBF41EA0C0190407A
:1003D000E41AA2BF01EB0451294330BD6FEA0404C3
:1003E0001F3C1CDA0C340EDC04F11404C4F12002AE
:1003F00020FA04F001FA02F340EA030021FA04F3C0
:1004000045EA030130BDC4F10C04C4F1200220FA16
:1004100002F001FA04F340EA0300294630BD21FA54
:1004200004F0294630BD94F0000F83F4801306BF1A
:1004300081F480110134013D4EE77FEA645C18BF0E
:100440007FEA655C29D094EA050F08BF90EA020FA5
:1004500005D054EA000C04BF1946104630BD91EA9D
:10046000030F1EBF0021002030BD5FEA545C05D1A0
:100470004000494128BF41F0004130BD14F58004DF
:100480003CBF01F5801130BD01F0004545F0FE4153
:1004900041F470014FF0000030BD7FEA645C1ABF88
:1004A000194610467FEA655C1CBF0B46024650EABF
:1004B000013406BF52EA033591EA030F41F40021EB
:1004C00030BD00BF90F0000F04BF0021704730B571
:1004D0004FF4806404F132044FF000054FF0000146
:1004E00050E700BF90F0000F04BF0021704730B507
:1004F0004FF4806404F1320410F0004548BF4042DC
:100500004FF000013EE700BF42004FEAE2014FEA30
:1005100031014FEA02701FBF12F07F4393F07F4F0B
:1005200081F06051704732F07F4208BF704793F00E
:100530007F4F04BF41F40021704730B54FF4607421
:1005400001F0004521F000411CE700BF50EA010224
:1005500008BF704730B54FF000050AE050EA0102CD
:1005600008BF704730B511F0004502D5404261EB3D
:1005700041014FF4806404F132045FEA915C3FF47E
:10058000D8AE4FF003025FEADC0C18BF03325FEA1B
:10059000DC0C18BF033202EBDC02C2F1200300FACC
:1005A00003FC20FA02F001FA03FE40EA0E0021FAF1
:1005B00002F11444BDE600BF4FEA4102B2F1E0434C
:1005C00024BFB3F5001CDCF1FE5C0DD901F0004C3A
:1005D0004FEAC0024CEA5070B2F1004F40EB83008A
:1005E00008BF20F00100704711F0804F21D113F1B6
:1005F0003872BCBF01F00040704741F480114FEAEF
:100600005252C2F11802C2F1200C10FA0CF320FA77
:1006100002F018BF40F001004FEAC1234FEAD32394
:1006200003FA0CFC40EA0C0023FA02F34FEA4303FE
:10063000CCE77FEA625307D150EA01331EBF4FF087
:10064000FE4040F44000704701F0004040F0FE40A2
:1006500040F40000704700BF80F0004002E000BF9F
:1006600081F0004142001FBF5FEA410392EA030F9D
:100670007FEA226C7FEA236C6AD04FEA1262D2EBE7
:100680001363C1BFD218414048404140B8BF5B42EC
:10069000192B88BF704710F0004F40F4000020F085
:1006A0007F4018BF404211F0004F41F4000121F09B
:1006B0007F4118BF494292EA030F3FD0A2F10102E5
:1006C00041FA03FC10EB0C00C3F1200301FA03F123
:1006D00000F0004302D5494260EB4000B0F5000F46
:1006E00013D3B0F1807F06D340084FEA310102F105
:1006F0000102FE2A51D2B1F1004F40EBC25008BFB7
:1007000020F0010040EA03007047490040EB000080
:10071000013A28BFB0F5000FEDD2B0FA80FCACF181
:10072000080CB2EB0C0200FA0CF0AABF00EBC250AE
:1007300052421843BCBFD0401843704792F0000F9C
:1007400081F4000106BF80F400000132013BB5E7EF
:100750004FEA41037FEA226C18BF7FEA236C21D065
:1007600092EA030F04D092F0000F08BF08467047CA
:1007700090EA010F1CBF0020704712F07F4F04D198
:10078000400028BF40F00040704712F100723CBFAB
:1007900000F50000704700F0004343F0FE4040F4D5
:1007A000000070477FEA226216BF08467FEA236393
:1007B0000146420206BF5FEA412390EA010F40F47E
:1007C000800070474FF0000304E000BF10F00043CA
:1007D00048BF40425FEA000C08BF704743F09643B1
:1007E00001464FF000001CE050EA010208BF7047CC
:1007F0004FF000030AE000BF50EA010208BF704753
:1008000011F0004302D5404261EB41015FEA010C67
:1008100002BF84460146002043F0B64308BFA3F15F
:100820008053A3F50003BCFA8CF2083AA3EBC25341
:1008300010DB01FA02FC634400FA02FCC2F1200260
:10084000BCF1004F20FA02F243EB020008BF20F097
:100850000100704702F1200201FA02FCC2F12002FD
:1008600050EA4C0021FA02F243EB020008BF20EAF2
:10087000DC7070474FF0FF0C1CEAD0521EBF1CEA20
:10088000D15392EA0C0F93EA0C0F6FD01A4480EA0E
:10089000010C400218BF5FEA41211ED04FF00063F7
:1008A00043EA501043EA5111A0FB01310CF0004023
:1008B000B1F5000F3EBF490041EAD3715B0040EA49
:1008C000010062F17F02FD2A1DD8B3F1004F40EB19
:1008D000C25008BF20F00100704790F0000F0CF0EC
:1008E000004C08BF49024CEA502040EA51207F3AB0
:1008F000C2BFD2F1FF0340EAC250704740F400008B
:100900004FF00003013A5DDC12F1190FDCBF00F07B
:1009100000407047C2F10002410021FA02F1C2F129
:10092000200200FA02FC5FEA310040F1000053EAC5
:100930004C0308BF20EADC70704792F0000F00F013
:10094000004C02BF400010F4000F013AF9D040EA19
:100950000C0093F0000F01F0004C02BF490011F4AD
:10096000000F013BF9D041EA0C018FE70CEAD153AB
:1009700092EA0C0F18BF93EA0C0F0AD030F0004C2B
:1009800018BF31F0004CD8D180EA010000F00040DF
:10099000704790F0000F17BF90F0004F084691F09D
:1009A000000F91F0004F14D092EA0C0F01D14202D7
:1009B0000FD193EA0C0F03D14B0218BF084608D1A0
:1009C00080EA010000F0004040F0FE4040F40000EA
:1009D000704740F0FE4040F4400070474FF0FF0C7D
:1009E0001CEAD0521EBF1CEAD15392EA0C0F93EAC4
:1009F0000C0F69D0A2EB030280EA010C49024FEA16
:100A0000402037D04FF0805343EA111143EA1013CE
:100A10000CF000408B4238BF5B0042F17D024FF486
:100A2000000C8B4224BF5B1A40EA0C00B3EB510F61
:100A300024BFA3EB510340EA5C00B3EB910F24BF4A
:100A4000A3EB910340EA9C00B3EBD10F24BFA3EBCF
:100A5000D10340EADC001B0118BF5FEA1C1CE0D197
:100A6000FD2A3FF650AF8B4240EBC25008BF20F04A
:100A7000010070470CF0004C4CEA50207F32C2BF9E
:100A8000D2F1FF0340EAC250704740F400004FF03B
:100A90000003013A37E792F0000F00F0004C02BF6C
:100AA000400010F4000F013AF9D040EA0C0093F036
:100AB000000F01F0004C02BF490011F4000F013B90
:100AC000F9D041EA0C0195E70CEAD15392EA0C0FF8
:100AD00008D142027FF47DAF93EA0C0F7FF470AF30
:100AE000084676E793EA0C0F04D14B023FF44CAF73
:100AF00008466EE730F0004C18BF31F0004CCAD108
:100B000030F000427FF45CAF31F000437FF43CAF43
:100B10005FE700BF4FF0FF3C06E000BF4FF0010C65
:100B200002E000BF4FF0010C4DF804CD4FEA400247
:100B30004FEA41037FEA226C18BF7FEA236C11D091
:100B400001B052EA530C18BF90EA010F58BFB2EB44
:100B5000030088BFC81738BF6FEAE17018BF40F0C4
:100B6000010070477FEA226C02D15FEA402C05D178
:100B70007FEA236CE4D15FEA412CE1D05DF8040BFD
:100B8000704700BF844608466146FFE70FB5FFF790
:100B9000C9FF002848BF10F1000F0FBD4DF808ED48
:100BA000FFF7F4FF0CBF012000205DF808FB00BF39
:100BB0004DF808EDFFF7EAFF34BF012000205DF893
:100BC00008FB00BF4DF808EDFFF7E0FF94BF0120E0
:100BD00000205DF808FB00BF4DF808EDFFF7D2FFDD
:100BE00094BF012000205DF808FB00BF4DF808ED20
:100BF000FFF7C8FF34BF012000205DF808FB00BFED
:100C00004FEA4002B2F1FE4F0FD34FF09E03B3EB19
:100C100012620DD94FEA002343F0004310F0004F59
:100C200023FA02F018BF404270474FF000007047AF
:100C300012F1610F01D1420205D110F0004008BF4E
:100C40006FF0004070474FF00000704753B94AB949
:100C5000002908BF00281CBF4FF0FF314FF0FF30C4
:100C600000F074B9ADF1080C6DE904CE00F006F89F
:100C7000DDF804E0DDE9022304B070472DE9F04718
:100C8000089E0D4604468846002B4DD18A42944664
:100C900068D9B2FA82F252B101FA02F3C2F120012C
:100CA00020FA01F10CFA02FC41EA030894404FEAF1
:100CB0001C45210CB8FBF5FE1FFA8CF705FB1E83C3
:100CC00041EA03430EFB07F199420BD91CEB0303E6
:100CD0000EF1FF3080F01E81994240F21B81AEF18F
:100CE000020E63445B1AA4B2B3FBF5F005FB1033AC
:100CF00044EA034400FB07F7A7420AD91CEB0404AB
:100D000000F1FF3380F00881A74240F2058164447E
:100D10000238E41B40EA0E4000211EB1D4400023FB
:100D2000C6E90043BDE8F0878B4208D9002E00F0E9
:100D3000EE800021C6E900050846BDE8F087B3FA59
:100D400083F100294AD1AB4202D3824200F2F980FA
:100D5000841A65EB030301209846002EE2D0C6E911
:100D60000048DFE702B9FFDEB2FA82F2002A40F063
:100D70009180A1EB0C054FEA1C471FFA8CFE012164
:100D8000B5FBF7F307FB1350250C45EA00450EFBB6
:100D900003F0A84208D91CEB050503F1FF3802D285
:100DA000A84200F2CB8043462D1AA4B2B5FBF7F05F
:100DB00007FB105544EA05440EFB00FEA64508D982
:100DC0001CEB040400F1FF3502D2A64500F2BB8003
:100DD0002846A4EB0E0440EA03409EE7C1F1200739
:100DE0008B4022FA07FC4CEA030C20FA07F405FAC0
:100DF00001F31C43FD404FEA1C4900FA01F3B5FB27
:100E0000F9F8200C1FFA8CFE09FB185540EA05453D
:100E100008FB0EF0A84202FA01F20BD91CEB050503
:100E200008F1FF3A80F08880A84240F28580A8F15E
:100E3000020865442D1AA4B2B5FBF9F009FB105560
:100E400044EA054500FB0EFEAE4508D91CEB05053E
:100E500000F1FF346CD2AE456AD90238654440EAED
:100E60000840A0FB0294A5EB0E05A542C846A64685
:100E700056D353D05EB1B3EB080265EB0E0505FA0D
:100E800007F722FA01F3CD401F43C6E900750021A0
:100E9000BDE8F087C2F1200320FA03F10CFA02FC4E
:100EA00025FA03F395400D434FEA1C471FFA8CFEC9
:100EB000B3FBF7F107FB11302B0C43EA004301FBB6
:100EC0000EF0984204FA02F408D91CEB030301F176
:100ED000FF382FD298422DD9023963441B1AADB284
:100EE000B3FBF7F007FB103345EA034500FB0EF3B5
:100EF000AB4208D91CEB050500F1FF3816D2AB4216
:100F000014D902386544ED1A40EA014138E7314608
:100F1000304607E78646E5E61846FAE64B45A9D28D
:100F2000B9EB020864EB0C0E0138A3E74046EAE790
:100F3000204694E74146D1E7D0467BE7023B654433
:100F400032E7084609E76444023842E7704700BFC9
:100F50000000000000000000000000000000000091
:100F60000000000000000000000000000000000081
:100F70000000000000000000000000000000000071
:100F800090F800F06DE9024520F007016FF0000CC9
:100F900010F0070491F820F040F049804FF0000471
:100FA0006FF00700D1E9002391F840F000F108004C
:100FB00082FA4CF2A4FA8CF283FA4CF3A2FA8CF384
:100FC0004BBBD1E9022382FA4CF200F10800A4FAEB
:100FD0008CF283FA4CF3A2FA8CF3E3B9D1E904233F
:100FE00082FA4CF200F10800A4FA8CF283FA4CF376
:100FF000A2FA8CF37BB9D1E9062301F1200182FA30
:101000004CF200F10800A4FA8CF283FA4CF3A2FA35
:101010008CF3002BC6D0002A04BF04301A4612BA43
:10102000B2FA82F2FDE8024500EBD2007047D1E946
:10103000002304F00305C4F100004FEAC50514F0D5
:10104000040F91F840F00CFA05F562EA05021CBFA6
:1010500063EA050362464FF00004A9E700000000C0
:1010600001F0FF01102A2BDB10F0070F08D010F859
:10107000013B013A8B422DD010F0070F42B3F6D15D
:10108000F0B441EA012141EA014122F007047FF076
:1010900000070023F0E80256083C85EA010586EACD
:1010A000010685FA47F5A3FA87F586FA47F6A5FA09
:1010B00087F68EB9EED1F0BC01F0FF0102F0070215
:1010C00032B110F8013B013A83EA010313B1F8D1C0
:1010D0000020704701387047002D06BF35460338A1
:1010E000073815F0010F07D1013015F4807F02BFDA
:1010F000013015F4C03F0130F0BC0138704700BF2B
:10110000844641EA000313F003036DD1403A41D312
:1011100051F8043B40F8043B51F8043B40F8043BD1
:1011200051F8043B40F8043B51F8043B40F8043BC1
:1011300051F8043B40F8043B51F8043B40F8043BB1
:1011400051F8043B40F8043B51F8043B40F8043BA1
:1011500051F8043B40F8043B51F8043B40F8043B91
:1011600051F8043B40F8043B51F8043B40F8043B81
:1011700051F8043B40F8043B51F8043B40F8043B71
:1011800051F8043B40F8043B51F8043B40F8043B61
:10119000403ABDD2303211D351F8043B40F8043B01
:1011A00051F8043B40F8043B51F8043B40F8043B41
:1011B00051F8043B40F8043B103AEDD20C3205D311
:1011C00051F8043B40F8043B043AF9D2043208D009
:1011D000D2071CBF11F8013B00F8013B01D30B887B
:1011E00003806046704700BF082A13D38B078DD059
:1011F00010F003038AD0C3F10403D21ADB071CBF2B
:1012000011F8013B00F8013B80D331F8023B20F894
:10121000023B7BE7043AD9D3013A11F8013B00F8CD
:10122000013BF9D20B7803704B7843708B78837055
:101230006046704770B54FF0FF0C4CF4E06C1CEA50
:1012400011541DBF1CEA135594EA0C0F95EA0C0FBC
:1012500000F0DEF82C4481EA030621EA4C5123EA2F
:101260004C5350EA013518BF52EA033541F480115E
:1012700043F4801338D0A0FB02CE4FF00005E1FB11
:1012800002E506F00042E0FB03E54FF00006E1FB5B
:1012900003569CF0000F18BF4EF0010EA4F1FF049E
:1012A000B6F5007F64F5407404D25FEA4E0E6D41DE
:1012B00046EB060642EAC62141EA55514FEAC520EF
:1012C00040EA5E504FEACE2EB4F1FD0C88BFBCF56B
:1012D000E06F1ED8BEF1004F08BF5FEA500E50F11C
:1012E000000041EB045170BD06F0004646EA0101E2
:1012F00040EA020081EA0301B4EB5C04C2BFD4EB14
:101300000C0541EA045170BD41F480114FF0000E0C
:10131000013C00F3AB8014F1360FDEBF002001F07A
:10132000004170BDC4F10004203C35DA0C341BDCF4
:1013300004F11404C4F1200500FA05F320FA04F0C6
:1013400001FA05F240EA020001F0004221F00041FA
:1013500010EBD37021FA04F642EB06015EEA430E6D
:1013600008BF20EAD37070BDC4F10C04C4F120059D
:1013700000FA04F320FA05F001FA04F240EA020050
:1013800001F0004110EBD37041F100015EEA430E21
:1013900008BF20EAD37070BDC4F1200500FA05F241
:1013A0004EEA020E20FA04F301FA05F243EA0203C0
:1013B00021FA04F001F0004121FA04F220EA0200CF
:1013C00000EBD3705EEA430E08BF20EAD37070BD15
:1013D00094F0000F0FD101F00046400041EB0101F5
:1013E00011F4801F08BF013CF7D041EA060195F0D7
:1013F000000F18BF704703F00046520043EB030391
:1014000013F4801F08BF013DF7D043EA060370477D
:1014100094EA0C0F0CEA135518BF95EA0C0F0CD088
:1014200050EA410618BF52EA4306D1D181EA0301CE
:1014300001F000414FF0000070BD50EA410606BFC8
:101440001046194652EA430619D094EA0C0F02D10D
:1014500050EA013613D195EA0C0F05D152EA033652
:101460001CBF104619460AD181EA030101F0004170
:1014700041F0FE4141F470014FF0000070BD41F0B9
:10148000FE4141F4780170BD70B54FF0FF0C4CF493
:10149000E06C1CEA11541DBF1CEA135594EA0C0FB2
:1014A00095EA0C0F00F0A7F8A4EB050481EA030EFF
:1014B00052EA03354FEA013100F088804FEA0333E6
:1014C0004FF0805545EA131343EA12634FEA0222B4
:1014D00045EA111545EA10654FEA00260EF0004175
:1014E0009D4208BF964244F1FD0404F5407402D2C7
:1014F0005B084FEA3202B61A65EB03055B084FEA58
:1015000032024FF480104FF4002CB6EB020E75EB54
:10151000030E22BFB61A754640EA0C005B084FEA7C
:101520003202B6EB020E75EB030E22BFB61A7546F9
:1015300040EA5C005B084FEA3202B6EB020E75EB44
:10154000030E22BFB61A754640EA9C005B084FEABC
:101550003202B6EB020E75EB030E22BFB61A7546C9
:1015600040EADC0055EA060E18D04FEA051545EAB8
:1015700016754FEA06164FEAC30343EA52734FEA61
:10158000C2025FEA1C1CC0D111F4801F0BD141EADA
:1015900000014FF000004FF0004CB6E711F4801F3F
:1015A00004BF01430020B4F1FD0C88BFBCF5E06F1F
:1015B0003FF6AFAEB5EB030C04BFB6EB020C5FEA2F
:1015C000500C50F1000041EB045170BD0EF0004E84
:1015D0004EEA113114EB5C04C2BFD4EB0C0541EAB6
:1015E000045170BD41F480114FF0000E013C90E6B3
:1015F00045EA060E8DE60CEA135594EA0C0F08BF77
:1016000095EA0C0F3FF43BAF94EA0C0F0AD150EA75
:1016100001347FF434AF95EA0C0F7FF425AF104608
:1016200019462CE795EA0C0F06D152EA03353FF430
:10163000FDAE1046194622E750EA410618BF52EAAD
:1016400043067FF4C5AE50EA41047FF40DAF52EA81
:1016500043057FF4EBAE12E74FF0FF3C06E000BF1E
:101660004FF0010C02E000BF4FF0010C4DF804CD2B
:101670004FEA410C7FEA6C5C4FEA430C18BF7FEAEB
:101680006C5C1BD001B050EA410C0CBF52EA430C19
:1016900091EA030F02BF90EA020F0020704710F199
:1016A000000F91EA030F58BF994208BF90422CBF28
:1016B000D8176FEAE37040F0010070474FEA410C21
:1016C0007FEA6C5C02D150EA013C07D14FEA430C3F
:1016D0007FEA6C5CD6D152EA033CD3D05DF8040BB0
:1016E000704700BF8446104662468C4619466346E2
:1016F00000E000BF01B5FFF7B7FF002848BF10F1B9
:10170000000F01BD4DF808EDFFF7F4FF0CBF0120FD
:1017100000205DF808FB00BF4DF808EDFFF7EAFF79
:1017200034BF012000205DF808FB00BF4DF808ED34
:10173000FFF7E0FF94BF012000205DF808FB00BF29
:101740004DF808EDFFF7CEFF94BF012000205DF8B3
:1017500008FB00BF4DF808EDFFF7C4FF34BF0120C0
:1017600000205DF808FB00BF4FEA410C7FEA6C5C8B
:1017700002D150EA013C0AD14FEA430C7FEA6C5C8B
:1017800002D152EA033C02D14FF0000070474FF003
:10179000010070474FEA410212F5001215D211D52F
:1017A0006FF47873B3EB625212D94FEAC12343F05E
:1017B000004343EA505311F0004F23FA02F018BFE0
:1017C000404270474FF00000704750EA013005D1A9
:1017D00011F0004008BF6FF0004070474FF000006C
:1017E000704700BF00B583B0164B9A6C42F00402FC
:1017F0009A649A6C02F004020092009A9A6C42F089
:1018000001029A649B6C03F001030193019B002287
:1018100011460B2000F032FC0B2000F067FC002288
:1018200011460C2000F02AFC0C2000F05FFC002286
:1018300011460D2000F022FC0D2000F057FC03B0F3
:101840005DF804FB0010024008B50F480F4B036021
:10185000002343608360C360037443748374202255
:101860004261012282610221C1610162426282629F
:10187000C262026343638363C36300F0D1FE00B9B5
:1018800008BD00F00FF9FBE7D80900200064004014
:1018900008B50F480F4B0360002343608360C360AB
:1018A0000374437483742022426101228261022105
:1018B000C161016242628262C26202634363836306
:1018C000C36300F0ADFE00B908BD00F0EBF8FBE724
:1018D0003C0A00200068004010B59EB0044600217C
:1018E00019911A911B911C911D91542204A803F087
:1018F00013FE23683F4A934204D03F4A934239D0B3
:101900001EB010BD4FF4805304934FF00073129338
:1019100004A801F09BFFF8B9384A1368013313603B
:10192000012B1CD0364BDA6C42F00102DA64DB6C1E
:1019300003F001030193019B4FF4C0531993022359
:101940001A9300231B931C9309231D9319A94FF08D
:10195000904001F0E9F9D3E700F0A4F8DCE7284B68
:101960009A6D42F000729A659B6D03F000730093CC
:10197000009BD7E74FF4805304934FF0007312930A
:1019800004A801F063FF30BB1C4A136801331360E5
:10199000012B23D01A4BDA6C42F00202DA64DB6CC2
:1019A00003F002030393039B4FF440531993022364
:1019B0001A9300241B941C9409231D9319A9114800
:1019C00001F0B2F922462146562000F057FB56207E
:1019D00000F08CFB94E700F065F8D5E7084B9A6DB2
:1019E00042F000729A659B6D03F000730293029BB4
:1019F000D0E700BF0064004000680040D409002028
:101A0000001002400004004830B58BB0002405945B
:101A10000694079408940994204BDA6C42F0200253
:101A2000DA64DA6C02F020020092009ADA6C42F07A
:101A30000102DA64DA6C02F001020192019ADA6CB6
:101A400042F00402DA64DA6C02F004020292029AB2
:101A5000DA6C42F01002DA64DA6C02F010020392DF
:101A6000039ADA6C42F00202DA64DB6C03F00203E0
:101A70000493049B0A4D22464FF44051284601F03E
:101A800041FA4FF4405305930123069307940894B9
:101A900005A9284601F048F90BB030BD00100240FE
:101AA0000010004872B6FEE700B595B0382200215C
:101AB00006A803F031FD00200190029003900490ED
:101AC000059001F02DFA022306934FF480720992DB
:101AD00040220A920D930E9301220F92142210922B
:101AE00011931293139306A801F0D4FA80B90F232F
:101AF000019303230293002303930493059304218A
:101B00000DEB010001F07CFD20B915B05DF804FB80
:101B1000FFF7C8FFFFF7C6FF08B500F067FAFFF749
:101B2000C3FFFFF771FFFFF75DFEFFF78DFE00F0CB
:101B3000BFF800F0FDF8FFF7ABFE03F09DFC034893
:101B400003F066FB03F080FCFCE700BFC40C002040
:101B500000B583B00B4B1A6E42F001021A661A6E82
:101B600002F001020092009A9A6D42F080529A654A
:101B70009B6D03F080530193019B01F057FA03B072
:101B80005DF804FB00100240FEE7FEE7FEE7FEE71B
:101B9000FEE770477047704708B500F037FA08BD98
:101BA00008B5024800F04FFC08BD00BF040C00203F
:101BB00008B5024800F047FC08BD00BF640C0020D7
:101BC00008B5024800F03FFC08BD00BFA40B002090
:101BD00070B5114B1B68DA6912F0100F03D10E4873
:101BE00002F0DAF870BD10221A620B4D284602F09E
:101BF0002DF80A4C0A49204603F0D0F94FF48076BC
:101C000032460021204603F087FC32462146284612
:101C100002F02EFFE3E700BFC40C0020A40A00205E
:101C20006C0F002008B5024802F0B6F808BD00BFEE
:101C3000580D002008B5024800F0B1FF08BD00BFF4
:101C40003C0A00200120704708B503F03BFC162336
:101C500003604FF0FF3008BD08B54FF0FF31FFF7CC
:101C6000F3FFFEE710B503460C4A0D490D48006826
:101C700040B10C4800680344521A934206D8094AFE
:101C8000136010BD0748084C0460F2E703F01AFC2B
:101C90000C2303604FF0FF30F3E700BF0000022089
:101CA00000040000A00A0020081000207047000077
:101CB00008B51C481C4B03604FF4E133436000231C
:101CC0008360C36003610C2242618361C36103626C
:101CD0004362836202F040FEC0B90021114802F065
:101CE00035FFB0B900210F4802F055FFA0B90D48EB
:101CF00002F00DFF98B90B480268136843F0100317
:101D000013600722094902F0B3FE08BDFFF7CAFEBF
:101D1000E3E7FFF7C7FEE5E7FFF7C4FEE7E7FFF7F6
:101D2000C1FEE8E7C40C002000380140A40A0020EE
:101D300008B51748174B03604FF4E13343600023A5
:101D40008360C36003610C2242618361C3610362EB
:101D50004362836202F000FE70B900210C4802F079
:101D6000F5FE60B900210A4802F015FF50B9084895
:101D700002F0CDFE48B908BDFFF794FEEDE7FFF78E
:101D800091FEEFE7FFF78EFEF1E7FFF78BFEF2E73C
:101D9000580D00200044004030B59FB0044600219B
:101DA00019911A911B911C911D91542204A803F0C2
:101DB000B3FB23685A4A934204D05A4A93424BD009
:101DC0001FB030BD0123049304A801F03FFD00289B
:101DD0003CD1554B1A6E42F480421A661A6E02F4D8
:101DE00080420092009ADA6C42F00402DA64DB6C02
:101DF00003F004030193019B3023199302231A93E8
:101E000000251B951C9507231D9319A9474800F031
:101E10008BFF4748474B0360182343608560C560CC
:101E20008023036145618561C561056200F0E0F9C9
:101E300078B93F4BC4F880309C62002211462520BF
:101E400000F01CF9252000F051F9B9E7FFF72AFE50
:101E5000BFE7FFF727FEECE70223049304A801F095
:101E6000F5FC002852D1304B9A6D42F400329A654D
:101E70009A6D02F400320292029ADA6C42F0010288
:101E8000DA64DB6C03F001030393039B0C231993C7
:101E900002231A9300251B951C9507231D9319A94E
:101EA0004FF0904000F040FF2348244B03601A237A
:101EB00043608560C5608023036145618561C561BC
:101EC000056200F095F920BB1B4BC4F880309C6282
:101ED0001B481C4B03601B234360102383600023BB
:101EE000C3608022026143618361C361036200F0C9
:101EF0007FF988B9124BE3679C62002211462620C5
:101F000000F0BCF8262000F0F1F859E7FFF7CAFD11
:101F1000A9E7FFF7C7FDD7E7FFF7C4FDEAE700BF72
:101F20000038014000440040001002400008004812
:101F3000A40B002030000240040C002008000240E6
:101F4000640C00201C0002400D488546FFF7AEFEE1
:101F50000C480D490D4A002302E0D458C450043304
:101F6000C4188C42F9D30A4A0A4C002301E01360DA
:101F70000432A242FBD303F0ABFAFFF7CDFDFEE73C
:101F80000000022000000020B80900203CBB00082F
:101F9000B809002004100020FEE70000104B1B6869
:101FA0000BB90120704710B504464FF47A70B0FBAE
:101FB000F3F30C4A1068B0FBF3F000F0A5F868B931
:101FC0000F2C01D901200AE0002221464FF0FF30FA
:101FD00000F054F8044B1C60002000E0012010BD0C
:101FE00004000020000000200800002010B503209D
:101FF00000F032F80F20FFF7D1FF10B10124204686
:1020000010BD0446FFF7A4FDF9E70000034A13687A
:10201000034909680B441360704700BFEC0D0020B2
:1020200004000020014B1868704700BFEC0D002031
:1020300038B50446FFF7F6FF0546B4F1FF3F02D07E
:10204000044B1B681C44FFF7EDFF401BA042FAD372
:1020500038BD00BF04000020074AD36823F4E063C2
:102060001B041B0C000200F4E060034343F0BF6359
:1020700043F40033D360704700ED00E000B5194B26
:10208000DB68C3F30223C3F1070CBCF1040F28BFC4
:102090004FF0040C03F1040EBEF1060F18D9033BF8
:1020A0004FF0FF3E0EFA0CFC21EA0C0199400EFAAB
:1020B00003F322EA0303194300280BDB0901C9B229
:1020C00000F1604000F5614080F800135DF804FB0A
:1020D0000023E5E700F00F000901C9B2024B1954D3
:1020E000F4E700BF00ED00E014ED00E0002807DB9E
:1020F00000F01F02400901239340024A42F82030B9
:10210000704700BF00E100E00138B0F1807F0BD2E2
:102110004FF0E0235861054AF02182F82310002097
:10212000986107221A6170470120704700ED00E0B6
:1021300010B4C46CD0F850C0C4F804C0446D24B1CD
:10214000846DD0F85CC0C4F804C0446C04F01F0C6B
:10215000012404FA0CF4D0F840C0CCF80440046820
:1021600063608368102B05D0036899600368DA60A8
:1021700010BC704703689A600368D960F8E70000F4
:1021800003680C4A934213D80B49DBB2083B0B4A55
:10219000A2FB0323426C22F003020A448264084A31
:1021A000C264C3F30413012202FA03F30365704708
:1021B0000449EAE70704024000080240CDCCCCCC39
:1021C00080080240200802400379074A1A4492001E
:1021D0004265064A8265013B03F01F03012202FAB1
:1021E00003F3C365704700BF3F82001040090240FF
:1021F00000285BD010B5044601682D4B99423DD8AC
:102200002C4B0B442C4AA2FB03231B099B00436469
:102210002A4B0364022384F825300A6822F4FF4223
:1022200022F07002A368E0680343206903436069F9
:102230000343A0690343E0690343206A0343134354
:102240000B602046FFF79CFFA368B3F5804F20D0BA
:10225000A36C22791A60E36C226D5A606368013BBB
:10226000032B19D900236365A365E3650020E063B0
:10227000012384F8253084F8240010BD104B0B4452
:102280000D4AA2FB03231B099B0043640D4B03640F
:10229000C0E700236360DBE72046FFF795FF636D2F
:1022A00000221A60A36DE26D5A60DFE701207047DB
:1022B00007040240F8FFFDBFCDCCCCCC00000240AB
:1022C000F8FBFDBF0004024038B5044690F8240036
:1022D000012841D0012084F8240094F82500C0B2E0
:1022E000012804D0002384F82430022038BD0220C5
:1022F00084F825000020E0632568286820F00100AC
:1023000028602046FFF714FF236BD3B122681368BF
:1023100043F00E031360A36C1A6812F4803F03D0DD
:102320001A6842F480721A60636D1BB11A6842F435
:1023300080721A602268136843F001031360002062
:10234000D4E72268136823F004031360226813683B
:1023500043F00A031360DEE70220C7E7034690F864
:102360002520D2B2022A09D00422C2630120012210
:1023700083F82520002283F82420704701680A682A
:1023800022F00E020A60816C0A6822F480720A60F0
:1023900001680A6822F001020A60426C02F01F0123
:1023A000006C01228A404260DA6C196D51605A6DEE
:1023B00042B1116821F4807111609A6DD96D51603C
:1023C0000020D4E70020D2E708B590F82530DBB232
:1023D000022B09D00423C363012380F82530002297
:1023E00080F82420184608BD0268136823F00E0305
:1023F00013600268136823F001031360826C136892
:1024000023F480731360436C03F01F02016C0123FB
:1024100093404B60C36C026D5A60436D33B11A68D0
:1024200022F480721A60836DC26D5A60012380F8B5
:102430002530002380F82430836B13B198470020A7
:10244000D1E70020CFE738B5036C19680468256828
:10245000436C03F01F0304229A400A4215D015F082
:10246000040F12D0236813F0200F03D1236823F048
:1024700004032360436C03F01F02016C04239340A8
:102480004B60036B03B1984738BD02229A400A4261
:102490001CD015F0020F19D0236813F0200F06D1BD
:1024A000236823F00A032360012380F82530436C5E
:1024B00003F01F02016C022393404B60002380F85D
:1024C0002430C36A002BDFD09847DDE7082202FAE8
:1024D00003F30B42D8D015F0080FD5D0236823F0B2
:1024E0000E032360436C03F01F03016C012202FA08
:1024F00003F34B60C26380F82520002380F824306A
:10250000436B002BC0D09847BEE7C06B70470000FC
:1025100002681D4B9A422AD01C491D4B9A4228D072
:102520000164D2F8803023F4F813D0F834C043EAC1
:102530000C43C2F8803001F1700343640268D2F8A2
:10254000803023F07063D0F838C043EA0C63C2F8DF
:10255000803001F1B003836401F5C473C36401F5F5
:102560001873036501F51E7343650B4607E00949BF
:10257000D3E701F5D461D3E7002243F8042B01F53A
:1025800054729A42F8D870470068004000A4004096
:10259000006C004050A7004070B54C68ECB90D6964
:1025A0008C6825430C6845EA8445CC690E6A44EA88
:1025B00006648E6934434E693443CE6844EA064467
:1025C000406D03EBC30300EBC30E40F83350CEF86D
:1025D00004400EF1080E002019E00C698D682543B7
:1025E0000C68254345F08045DFE702EB000C9CF8C2
:1025F00003409CF802301B0443EA04639CF801404A
:1026000043EA0423145C23434EF8043B0430CB68B4
:10261000024CE35C8342E8D870BD00BFA8B6000856
:10262000002800F0E38038B5044690F85C30D3B160
:102630002268936923F010039361FFF7F3FC0546CA
:1026400023689A6912F0080F12D0FFF7EBFC401BC9
:102650000A28F5D9236E43F001032366032384F887
:102660005C30012038BD80F85D30FFF735F9DFE7D9
:102670009A6942F001029A61FFF7D4FC054623688B
:102680009A6912F0010F0DD1FFF7CCFC401B0A280C
:10269000F5D9236E43F001032366032384F85C30ED
:1026A0000120DFE79A6942F002029A612268504BEA
:1026B0009A4242D0237C012B45D02268936943F093
:1026C00040039361637C012B43D02268936923F418
:1026D00080439361A37C012B41D02268936943F42A
:1026E000805393612268936923F44073A1680B437C
:1026F00093612268936923F0A403936122681369AC
:1027000023F010031361E368012B2ED0002B31D08E
:10271000022B54D02268936943F0800393612268AE
:10272000136943F010031361E368032B22D122687D
:10273000936943F0200393611CE06268A3F5806312
:10274000C3F80025B6E72268936923F0400393613C
:10275000B8E72268936943F480439361BAE722683B
:10276000936923F480539361BCE72268936943F033
:1027700004039361A3695A1EE369013B1B0243EA08
:102780004263226A013A13436269013A216843EACB
:102790000243CB61A368B3F5407F16D02268D2F81C
:1027A000C030E16B0B43C2F8C0302046FFF7B0FEEB
:1027B0000020A0652066012384F85C3052E722687F
:1027C000936943F020039361D4E7A36A013BE26A73
:1027D000013A43EA0223226B013A43EA0213626A96
:1027E000013A216843EA0243CB60D7E701207047F2
:1027F0000064004090F85C30013BDBB2012B05D94E
:10280000036E43F002030366012070470B687BB937
:102810008A68CB68DB0643EA82730A6943EA0243AB
:102820004A691343026C496842F82130002070471E
:10283000CA680B6943EA42724B69D1F808C043EA9F
:102840008C73406C496800EBC10C40F83120CCF827
:102850000430EBE790F85CC05FFA8CFCBCF1010F30
:1028600005D0036E43F0040303660120704710B4E3
:102870000468D4F8800020F03F00920042EA011280
:1028800042EA4302019B1A430243C4F8802000201D
:1028900010BC704790F85C30DBB2012B05D0036EA2
:1028A00043F00403036601207047022380F85C3084
:1028B0000268936923F001039361002303661846BD
:1028C000704738B5044690F85C30DBB2022B1BD160
:1028D0000368D3F8C40010F4001F05D0236E43F43E
:1028E00000732366012014E0D3F8C450C5F30145FA
:1028F0002B462046FFF750FE22680123AB40C2F86A
:10290000CC30A365002004E0036E43F008030366A7
:10291000012038BD70B590F85C40E4B2022C40F064
:10292000A28040290BD00468D4F8985015F00F0FFE
:102930002DD1036E43F480730366012098E0046890
:10294000D4F8905015F00F0F05D1036E43F4807347
:10295000036601208CE0D4F89050C5F3006C15F0AC
:10296000807F08D0D4F88050C5F3402C15F4007F48
:1029700001D04FF0010CD4F89040C4F301240CEBCB
:102980000405846C05EBC50C04EBCC0C1AE0D4F800
:102990009850C5F3006C15F0807F08D0D4F88050B3
:1029A000C5F3002C15F4807F01D04FF0010CD4F852
:1029B0009840C4F301240CEB0405C46C05EBC50C72
:1029C00004EBCC0CDCF8004004F08044546074BB91
:1029D000DCF80040C4F38A441460DCF8004004F0E2
:1029E00000549460DCF8004004F000441461BCF82A
:1029F0000440D461BCF8064004F00F04D460DCF855
:102A0000044004F480145461DCF8044004F400141D
:102A100094619CF8074004F07F041462DCF80440E1
:102A2000E40F54620CF1080E4FF0000C0BE0DCF8E0
:102A3000004024F060441460CFE71EF80C4003F817
:102A40000C400CF1010C0B4CD668A45D6445F4D825
:102A5000402904D00368C3F89C50002008E00368B4
:102A6000C3F89450F9E7036E43F0080303660120AE
:102A700070BD00BFA8B600080368D3F8C40000F01A
:102A80000700704790F85C30013BDBB2012B05D9A1
:102A9000036E43F0020303660120704770B40468BC
:102AA000A36D11F0070602D013F0010F23D011F02F
:102AB000380F02D013F0020F1DD011F4E07F02D0C6
:102AC00013F0040F17D011F4F05F02D013F0080FC9
:102AD00011D011F4604F02D013F0100F0BD011F48D
:102AE000403F02D013F0200F05D011F47C0F06D028
:102AF00013F0400F03D1E56D45F00105E56516B112
:102B000013F0010F23D111F0380F02D013F0020F90
:102B10001DD111F4E07F02D013F0040F17D111F48E
:102B2000F05F02D013F0080F11D111F4604F02D002
:102B300013F0100F0BD111F4403F02D013F0200F0F
:102B400005D111F47C0F07D013F0400F04D00468B6
:102B5000E36D43F00203E36511F0800F05D00468D4
:102B6000D4F8DC301343C4F8DC3011F4807F05D096
:102B70000468D4F8E0301A43C4F8E0200268536DCA
:102B800019435165002070BC70477047704770470B
:102B900070477047704770477047704770472DE91E
:102BA000F84F044603681A6D02F4E05A5A6D0AEAB7
:102BB000020A1A6D02F007095A6D09EA02091A6D34
:102BC00002F038085A6D08EA02081E6D06F4710614
:102BD0005A6D16401F6D07F460275A6D1740D3F8E1
:102BE00054B01D6D15F0400F02D01BF0400F41D1C5
:102BF00015F4807F02D01BF4807F40D1BAF1000F22
:102C00004AD1B9F1000F4FD1B8F1000F54D115F4EA
:102C1000007F02D01BF4007F56D115F0800F02D048
:102C20001BF0800F58D115F4005F02D01BF4005F39
:102C30005ED115F4004F02D01BF4004F60D115F4A3
:102C4000804F0AD01BF4804F07D023684FF4804296
:102C50001A65236E43F080032366002F58D126B1F6
:102C600023681E65236E1E432666236E002B56D1F5
:102C7000BDE8F88F40221A65FFF78EFFB8E723689A
:102C8000D3F8D810D3F8E0204FF4807018651140C5
:102C90002046FFF77EFFB1E72368C3F850A05146F6
:102CA0002046FFF772FFACE72368C3F8509049460F
:102CB000204602F073F8A7E72368C3F85080414626
:102CC0002046FFF763FFA2E723684FF400721A65FE
:102CD0002046FFF75CFFA0E72368D3F8D410D3F8B1
:102CE000DC208020186511402046FFF751FF9AE74D
:102CF00023684FF400521A652046FFF74BFF98E710
:102D000023684FF400421A652046FFF744FF96E718
:102D100023681F6539462046FFF740FF9FE720469E
:102D2000FFF73BFFA4E7000070B582B0002365E029
:102D300085685E000324B44025EA0405CC68B440ED
:102D40002C438460446824EA0C0C4C68C4F30014DF
:102D50009C4044EA0C04446061E0DD08083550F80A
:102D6000256003F007044FEA840C0F2404FA0CF4E6
:102D700026EA040E0C6904FA0CF444EA0E0440F846
:102D8000254063E0052400E0002404FA0EF42C43FF
:102D90000CF1020C574D45F82C40574CA568D44314
:102DA00025EA0206D1F804C01CF4801F01D042EAD3
:102DB0000506514DAE60ED6804EA0506D1F804C081
:102DC0001CF4001F01D042EA05064B4DEE606D6811
:102DD00004EA0506D1F804C01CF4003F01D042EA21
:102DE0000506454D6E602D682C404E6816F4803FF8
:102DF00001D042EA0504404A146001330A6832FAFD
:102E000003F474D04FF0010C0CFA03FC1CEA02022C
:102E1000F3D04C6804F00304013C012C88D94C68C1
:102E200004F00304032C0CD0C4685D004FF0030CC5
:102E30000CFA05FC24EA0C0C8C68AC4044EA0C0447
:102E4000C4604C6804F00304022C86D004684FEA86
:102E5000430E4FF0030C0CFA0EFC24EA0C0C4C68E9
:102E600004F0030404FA0EF444EA0C0404604C6811
:102E700014F4403FC1D0214C256E45F00105256674
:102E8000246E04F001040194019C4FEA930C0CF1B0
:102E90000205184C54F8255003F003044FEA840E41
:102EA0000F2404FA0EF425EA0405B0F1904F3FF424
:102EB0006BAF134CA04212D004F58064A04210D036
:102EC00004F58064A0420ED004F58064A0420CD0CA
:102ED00004F58064A0423FF455AF062455E7012471
:102EE00053E7022451E703244FE704244DE702B0DF
:102EF00070BD00BF0000014000040140001002400E
:102F0000000400480AB181617047816270474369DB
:102F100001EA030221EA030141EA024181617047AB
:102F2000002836D13E4B1B6803F4C063B3F5806FB5
:102F300008D03B4AD2F8803023F48073C2F8803046
:102F400000207047364AD2F8803023F48073C2F8EC
:102F50008030136823F4C06343F400731360314B73
:102F60001B68322202FB03F32F4AA2FB03239B0CB4
:102F7000013300E0013B2A4A526912F4806F01D00C
:102F8000002BF7D1264B5B6913F4806F44D10020EE
:102F90007047B0F5007F08D0214A136823F4C0635E
:102FA00043F480631360002070471D4B1B6803F4DB
:102FB000C063B3F5806F08D0194AD2F8803043F46B
:102FC0008073C2F8803000207047154AD2F88030F4
:102FD00043F48073C2F88030136823F4C06343F471
:102FE000007313600F4B1B68322202FB03F30E4A7F
:102FF000A2FB03239B0C013300E0013B084A52690A
:1030000012F4806F01D0002BF7D1054B5B6913F4EC
:10301000806F03D100207047032070470320704762
:10302000007000400000002083DE1B43024A9368CA
:1030300043F480439360704700700040124BDA689D
:1030400002F00302D868C0F30310431C032A11D016
:103050000E48B0FBF3F00C4BDB68C3F3062303FB15
:1030600000F0094BDB68C3F3416301335B00B0FB45
:10307000F3F070470648B0FBF3F0034BDB68C3F393
:10308000062303FB00F0ECE7001002400024F400EC
:10309000006CDC02002800F04F8270B582B004465C
:1030A000036813F0010F37D0A44A936803F00C03B0
:1030B000D26802F003020C2B23D0082B23D06368C4
:1030C000B3F5803F4ED0B3F5A02F51D09B4B1A687B
:1030D00022F480321A601A6822F480221A6063682F
:1030E000002B52D0FEF79EFF0546944B1B6813F44D
:1030F000003F11D1FEF796FF401B6428F5D903204D
:1031000023E2032AD9D18D4B1B6813F4003F03D06F
:103110006368002B00F01282236813F0020F5DD069
:10312000864A936803F00C03D26802F003020C2B6A
:103130003AD0042B3AD0E368002B75D07F4A13684D
:1031400043F480731360FEF76DFF05467B4B1B68ED
:1031500013F4806F5FD1FEF765FF401B0228F5D99D
:103160000320F2E1754A136843F480331360B6E735
:1031700003F18043A3F53C331A6842F480221A60BD
:103180001A6842F480321A60A9E7FEF74BFF054641
:103190006A4B1B6813F4003FBED0FEF743FF401B91
:1031A0006428F5D90320D0E1022AC2D1634B1B6801
:1031B00013F4806F03D0E368002B00F0C1815F4AF5
:1031C000536823F0FE43216943EA016353605C4B7B
:1031D0001868FEF7E3FE002840F0B481236813F07E
:1031E000080F4CD063699BB3544AD2F8943043F033
:1031F0000103C2F89430FEF715FF05464F4BD3F894
:10320000943013F0020F3AD1FEF70CFF401B022856
:10321000F4D9032099E1494A536823F0FE43216918
:1032200043EA01635360D9E7444A136823F4807387
:103230001360FEF7F7FE0546404B1B6813F4806FE2
:10324000CCD0FEF7EFFE401B0228F5D903207CE12D
:103250003A4AD2F8943023F00103C2F89430FEF7D2
:10326000E1FE0546354BD3F8943013F0020F06D03B
:10327000FEF7D8FE401B0228F4D9032065E123683D
:1032800013F0040F00F081802C4B9B6D13F0805FD6
:1032900036D12A4B9A6D42F080529A659B6D03F0AD
:1032A00080530193019B0125264B1B6813F4807FFB
:1032B00028D0A368012B39D0052B45D01F4BD3F85C
:1032C000902022F00102C3F89020D3F8902022F041
:1032D0000402C3F89020A368002B43D0FEF7A2FE9F
:1032E0000646164BD3F8903013F0020F4CD1FEF780
:1032F00099FE801B41F288339842F2D9032024E1E1
:103300000025D1E70F4A136843F480731360FEF77A
:1033100089FE06460B4B1B6813F4807FC9D1FEF76C
:1033200081FE801B0228F5D903200EE1034AD2F862
:10333000903043F00103C2F89030CCE70010024017
:103340000800002000700040884BD3F8902042F025
:103350000402C3F89020D3F8902042F00102C3F891
:103360009020B8E7FEF75EFE0646804BD3F890301B
:1033700013F0020F08D0FEF755FE801B41F2883390
:103380009842F2D90320E0E0E5B9236813F0200F5A
:1033900035D0A369E3B1754AD2F8983043F0010300
:1033A000C2F89830FEF73EFE0546704BD3F89830D1
:1033B00013F0020F23D1FEF735FE401B0228F4D98B
:1033C0000320C2E0694A936D23F080539365DCE7E4
:1033D000664AD2F8983023F00103C2F89830FEF71D
:1033E00021FE0546614BD3F8983013F0020F06D04A
:1033F000FEF718FE401B0228F4D90320A5E0E3697C
:10340000002B00F0A180594A926802F00C020C2AAD
:1034100064D0022B13D0554A136823F080731360D5
:10342000FEF700FE0446514B1B6813F0007F4ED0A0
:10343000FEF7F8FD001B0228F5D9032085E04B4A72
:10344000136823F080731360FEF7ECFD0546474BCD
:103450001B6813F0007F06D0FEF7E4FD401B022836
:10346000F5D9032071E0414AD36841491940236AE4
:10347000606A013843EA0013A06A43EA0023206B24
:103480004008013843EA4053606B4008013843EA82
:103490004063E06A43EAC0630B43D360136843F0C0
:1034A00080731360D36843F08073D360FEF7BAFD76
:1034B00004462E4B1B6813F0007F06D1FEF7B2FDC9
:1034C000001B0228F5D903203FE000203DE0274AF9
:1034D000D168284B0B40D360002036E0012B36D05A
:1034E000224BDB6803F00301226A914231D103F0E1
:1034F000F002616A0139B2EB011F2CD103F4FE42E4
:10350000A16AB2EB012F28D103F07842E16AB2EB55
:10351000C16F24D103F4C001226B5208013AB1EB10
:10352000425F1ED103F0C063626B5208013AB3EBF5
:10353000426F18D1002008E001207047012004E00C
:10354000012002E0012000E0002002B070BD012057
:10355000FBE70120F9E70120F7E70120F5E701206B
:10356000F3E70120F1E70120EFE700BF0010024080
:103570000C809F01FCFFEEFE1E4B9B6803F00C03CA
:10358000042B33D01B4B9B6803F00C03082B2FD06C
:10359000184B9B6803F00C030C2B01D000207047E4
:1035A000144BDA6802F00302D868C0F30310431C1E
:1035B000032A11D01048B0FBF3F00E4BDB68C3F3C5
:1035C000062303FB00F00B4BDB68C3F341630133BD
:1035D0005B00B0FBF3F070470848B0FBF3F0054B1D
:1035E000DB68C3F3062303FB00F0ECE702487047F7
:1035F00002487047001002400024F400006CDC0216
:10360000002800F0E680F8B50C460546744B1B68B0
:1036100003F00F038B420BD2714A136823F00F03A0
:103620000B431360136803F00F038B4240F0D38009
:103630002E6816F001065FD06B68032B2FD0022B8B
:103640004DD0684B1B6813F4806F00F0C680FFF705
:1036500093FF654B98424DD9624A936823F0F0037B
:1036600043F08003936080265E4A936823F003034F
:1036700069680B439360FEF7D5FC0746594B9B687E
:1036800003F00C036A68B3EB820F35D0FEF7CAFC77
:10369000C01B41F288339842F0D9032078E0514BA7
:1036A0001B6813F0007F01D1012071E0FFF7C6FC19
:1036B0004D4B98421AD94B4B9B6813F0F00F05D035
:1036C0002E6816F00206CFD0AB688BB9454A9368D6
:1036D00023F0F00343F0800393608026C4E7414B5E
:1036E0001B6813F4003FB2D1012051E00026BBE774
:1036F0000026B9E70026B7E72B6813F0020F48D081
:1037000013F0040F04D0374A936843F4E0639360E6
:103710002B6813F0080F06D0324A936823F47C53C9
:1037200043F4E06393602F4A936823F0F003A968A1
:103730000B4393602A4B1B6803F00F03A34230D85E
:103740002B6813F0040F06D0264A936823F4E06335
:10375000E9680B4393602B6813F0080F07D0214AE8
:10376000936823F46053296943EAC1039360FFF728
:1037700003FF1C4B9B68C3F303131C4AD35C03F089
:103780001F03D8401A4B18601A4B1868FEF706FC46
:10379000F8BD802ECED1134A936823F0F0039360D6
:1037A000C8E70F4A136823F00F0323431360FEF7A3
:1037B00039FC06460A4B1B6803F00F03A342BFD037
:1037C000FEF730FC801B41F288339842F2D9032087
:1037D000DEE7012070470120DAE70120D8E700BFCB
:1037E000002002400010024000B4C40490B600085B
:1037F0000000002008000020014B1868704700BF3F
:103800000000002008B5FFF7F7FF054B9B68C3F3E6
:103810000223044AD35C03F01F03D84008BD00BF55
:1038200000100240A0B6000808B5FFF7E5FF054B01
:103830009B68C3F3C223044AD35C03F01F03D84040
:1038400008BD00BF00100240A0B60008F0B583B06C
:103850000446036813F4002F6ED0354B9B6D13F0B4
:10386000805F1ED1324B9A6D42F080529A659B6DFB
:1038700003F080530193019B01262E4A136843F401
:1038800080731360FEF7CEFB05462A4B1B6813F4CA
:10389000807F08D1FEF7C6FB401B0228F5D903251F
:1038A00002E00026E9E7002545BB214BD3F8903024
:1038B00013F4407315D0226D9A4212D01C4AD2F8EC
:1038C000903023F44073D2F8901041F48031C2F864
:1038D0009010D2F8901021F48031C2F89010C2F804
:1038E000903013F0010F10D145B9114AD2F8903041
:1038F00023F44073216D0B43C2F89030EEB10C4AB3
:10390000936D23F08053936517E0FEF78BFB07461A
:10391000074BD3F8903013F0020FE5D1FEF782FB8E
:10392000C01B41F288339842F2D90325DCE700BF7F
:1039300000100240007000400025236813F0010FC2
:1039400008D09F4AD2F8883023F0030361680B4304
:10395000C2F88830236813F0020F08D0984AD2F8D2
:10396000883023F00C03A1680B43C2F88830236829
:1039700013F0040F08D0924AD2F8883023F03003B5
:10398000E1680B43C2F88830236813F0080F08D0B1
:103990008B4AD2F8883023F0C00321690B43C2F868
:1039A0008830236813F0100F08D0854AD2F8883089
:1039B00023F4407361690B43C2F88830236813F025
:1039C000200F08D07E4AD2F8883023F44063A169E2
:1039D0000B43C2F88830236813F0400F08D0784AB0
:1039E000D2F8883023F44053E1690B43C2F88830A1
:1039F000236813F0800F08D0714AD2F8883023F47E
:103A00004043216A0B43C2F88830236813F4807F57
:103A100008D06B4AD2F8883023F44033616A0B43F4
:103A2000C2F88830236813F4003F08D0644AD2F803
:103A30009C3023F00303A16A0B43C2F89C30236837
:103A400013F4007F08D05E4AD2F8883023F4402374
:103A5000E16A0B43C2F88830236813F4806F0CD0FE
:103A6000574AD2F8883023F44013216B0B43C2F835
:103A70008830236BB3F5801F79D0236813F4006F6F
:103A80000CD04F4AD2F8883023F44003616B0B43CB
:103A9000C2F88830636BB3F5800F6DD0236813F4E0
:103AA000805F0CD0464AD2F8883023F04073A16B77
:103AB0000B43C2F88830A36BB3F1807F61D02368D9
:103AC00013F4005F0CD03E4AD2F8883023F04063F4
:103AD000E16B0B43C2F88830E36BB3F1006F55D054
:103AE000236813F4804F0CD0354AD2F8883023F085
:103AF0004063216C0B43C2F88830236CB3F1006F34
:103B000049D0236813F4004F0CD02D4AD2F88830E6
:103B100023F04053616C0B43C2F88830636CB3F1FF
:103B2000805F3DD0236813F4803F0CD0244AD2F844
:103B3000883023F04043A16C0B43C2F88830A36C5B
:103B4000B3F1804F31D0236813F4802F0CD01C4A7E
:103B5000D2F89C3023F44013E16C0B43C2F89C3044
:103B6000E36CB3F5001F25D0284603B0F0BDD36841
:103B700043F48013D36080E7D36843F48013D360A9
:103B80008CE7D36843F48013D36098E7D36843F499
:103B90008013D360A4E7D36843F48013D360B0E705
:103BA000D36843F48033D360BCE7D36843F48033F5
:103BB000D360C8E7D36843F48013D360D4E700BF71
:103BC00000100240026852E8003F23F0C00342E8C0
:103BD00000310029F6D1026802F1080353E8003FE2
:103BE00023F40003083242E800310029F3D12023F6
:103BF000C0F888307047026852E8003F23F49073A1
:103C000042E800310029F6D1026802F1080353E8C6
:103C1000003F23F0805323F00103083242E80031D3
:103C20000029F1D1C36E012B06D02023C0F88C30BF
:103C30000023C36643677047026852E8003F23F0E1
:103C4000100342E800310029F6D1EEE738B504460A
:103C5000D0F88820D0F88C5003689B6813F0800F50
:103C600001D0212A08D023689B6813F0400F44D06C
:103C7000222D20D0002041E0226802F1080353E801
:103C8000003F23F08003083242E800310029F3D1DD
:103C9000E06F10B1FEF762FB18B92046FFF792FF04
:103CA000E1E7E06FFEF731FC2028F6D11023C4F8DD
:103CB0009030032022E0226802F1080353E8003F1D
:103CC00023F04003083242E800310029F3D1D4F850
:103CD000800010B1FEF742FB20B92046FFF78BFFB2
:103CE00000200BE0D4F88000FEF70FFC2028F4D170
:103CF0001023C4F89030032000E0002038BD704746
:103D000008B5026852E8003F23F0400342E8003162
:103D10000029F6D12023C0F8883000238367FFF7FD
:103D2000EEFF08BD70477047704738B5846AD4F815
:103D30008820D4F88C5023689B6813F0800F01D042
:103D4000212A10D023689B6813F0400F01D0222D48
:103D500010D0D4F8903043F01003C4F890302046CF
:103D6000FFF7E2FF38BD0023A4F856302046FFF7E6
:103D700029FFE7E70023A4F85E302046FFF73BFF6A
:103D8000E7E708B5806A0023A0F85E30A0F8563057
:103D9000FFF7CAFF08BD704770B504460168CB69DC
:103DA00008688D6840F60F021A4008D113F0200F02
:103DB00005D010F0200F34D115F0805F31D12AB139
:103DC000A04A2A4033D1A04E304230D1E26E012ABF
:103DD00000F0C68013F4801F03D015F4800F40F06C
:103DE000738113F0800F07D010F0800F40F07381C3
:103DF00015F4000F40F06F8113F0400F03D010F066
:103E0000400F40F06F8113F4000F03D010F0804F8B
:103E100040F06C8113F0807F02D00028C0F26A81EC
:103E200070BD636F002BFBD020469847F8E713F076
:103E3000010F09D010F4807F06D001260E62D4F85D
:103E400090103143C4F8901013F0020F0BD015F00E
:103E5000010F08D0216802260E62D4F8901041F0BC
:103E60000401C4F8901013F0040F0BD015F0010FEB
:103E700008D0216804260E62D4F8901041F00201A7
:103E8000C4F8901013F0080F0BD010F0200F00D1E1
:103E90003AB1226808211162D4F890200A43C4F88C
:103EA000902013F4006F0CD010F0806F09D02268BE
:103EB0004FF400611162D4F8902042F02002C4F85F
:103EC0009020D4F89020002AAAD013F0200F09D017
:103ED00010F0200F02D115F0805F03D0636F0BB19B
:103EE00020469847D4F8902023689B6813F0400F31
:103EF00002D112F0280F2CD02046FFF77CFE236859
:103F00009B6813F0400F20D0226802F1080353E8A9
:103F1000003F23F04003083242E800310029F3D18A
:103F2000D4F880306BB1494A9A63D4F88000FEF728
:103F30004BFA00283FF474AFD4F88000836B9847A5
:103F40006EE72046FFF7F0FE6AE72046FFF7ECFE3B
:103F500066E72046FFF7E8FE0023C4F890305FE7ED
:103F600013F0100F3FF436AF10F0100F3FF432AFE4
:103F700010230B6223689B6813F0400F68D0D4F8BD
:103F800080100A6853689BB2002B4AD0B4F85C00DA
:103F9000984246D9A4F85E300B681B6813F0200FD6
:103FA00032D1226852E8003F23F4807342E80031A6
:103FB0000029F6D1226802F1080353E8003F23F0FC
:103FC0000103083242E800310029F3D1226802F1EE
:103FD000080353E8003F23F04003083242E8003171
:103FE0000029F3D12023C4F88C300023E366226833
:103FF00052E8003F23F0100342E800310029F6D1D7
:10400000D4F88000FEF7AAF902232367B4F85C1005
:10401000B4F85E309BB2C91A89B22046FFF7BBFEE6
:10402000FEE6B4F85C1099427FF4FAAE136813F020
:10403000200F3FF4F5AE022323672046FFF7ABFEC7
:10404000EEE600BF0100001020010004833D0008DF
:10405000B4F85C10B4F85E309BB2C91A89B2B4F8F7
:104060005E309BB2002B3FF4DBAE00293FF4D8AEAC
:10407000226852E8003F23F4907342E800300028A1
:10408000F6D1226802F1080353E8003F23F0805381
:1040900023F00103083242E800300028F1D1202348
:1040A000C4F88C300023E3666367226852E8003F5F
:1040B00023F0100342E800300028F6D102232367E2
:1040C0002046FFF768FEABE64FF480130B622046F4
:1040D00000F01AFDA4E6A36F002B3FF4A1AE20462A
:1040E00098479DE62046FFF70BFE99E6204600F034
:1040F0000DFD95E6204600F008FD91E608B5806AC2
:1041000001230367C36E012B02D0FFF70CFE08BD2D
:10411000B0F85C104908FFF73EFEF8E708B5034623
:10412000806A1B681B6813F0200F29D10023A0F8B8
:104130005E30026852E8003F23F4807342E80031A9
:104140000029F6D1026802F1080353E8003F23F08A
:104150000103083242E800310029F3D1026802F17C
:10416000080353E8003F23F04003083242E80031DF
:104170000029F3D12023C0F88C30C36E012B07D067
:1041800000230367C36E012B0CD0FFF7CBFD08BDE6
:10419000026852E8003F23F0100342E80031002992
:1041A000F6D1EDE7B0F85C10FFF7F5FDEFE70000A2
:1041B00070B504460168836802691343426913437A
:1041C000C26913430868964A024013430B60226891
:1041D000536823F44053E1680B435360A16922689C
:1041E000904B9A4201D0236A1943936823F06E439F
:1041F00023F430630B4393602268D36A23F00F03E8
:10420000616A0B43D3622368874A934210D0874A7E
:10421000934221D0864A934237D0864A93425CD05B
:10422000854A93426BD07F4A93427DD010223AE078
:1042300002F55842D2F8882002F00302032A09D876
:10424000DFE802F00204870601222CE004222AE0C3
:10425000082228E0102226E002F5E632D2F8882073
:1042600002F00C020C2A0ED8DFE802F0070D0D0D4B
:10427000090D0D0D750D0D0D0B00002213E004222C
:1042800011E008220FE010220DE002F5E432D2F82E
:10429000882002F03002202A5FD01AD8002A5ED08F
:1042A000102A5ED104225F498B4276D0E069B0F5D6
:1042B000004F00F0C980082A00F23481DFE812F0D4
:1042C000F7001901F50032011C01320132013201FF
:1042D0001F01302A47D10822E5E702F5E232D2F881
:1042E000882002F0C002802A3FD004D8FAB3402AC6
:1042F0003FD10422D7E7C02A3DD10822D3E702F5F7
:10430000E032D2F8882002F44072B2F5007F34D057
:1043100005D8A2B3B2F5807F33D10422C3E7B2F54A
:10432000407F30D10822BEE702F5C832D2F888209B
:1043300002F44062B2F5006F27D005D83AB3B2F567
:10434000806F26D10422AEE7B2F5406F23D1082258
:10435000A9E70222A7E70222A5E70222A3E700229B
:10436000A1E710229FE710229DE702229BE700228F
:1043700099E7102297E7102295E7022293E700229F
:1043800091E710228FE710228DE702228BE70022AF
:1043900089E7102287E7102285E7082A00F2B28019
:1043A000DFE802F008B03BB038B0B0B005004FF421
:1043B000004004E0FFF726FA002800F0A580626ABA
:1043C0001E4B33F81220B0FBF2F3656805EB450194
:1043D000994200F29B80B3EB053F00F299800026E2
:1043E00033463146FCF732FC090241EA1061000213
:1043F0006B08C0182A46334641F10001FCF726FC41
:10440000A0F540720E4B9A4200F284802368D86077
:10441000304665E0FFF7B0F8CEE70A48CFE700BFC7
:10442000F369FFCF008000400038014000440040A5
:1044300000480040004C004000500040B8B6000862
:10444000FFFC0F000024F400082A65D8DFE802F022
:10445000072705642A6464640B00354803E0FFF70E
:10446000D1F900285AD0626A324B33F81230B0FBCF
:10447000F3F06268530803EB4000B0FBF2F0A0F1E8
:1044800010024FF6EF739A424AD883B223F00F031B
:10449000C0F3420018432368D860002020E0FFF7F3
:1044A000C3F9DEE7FFF768F8DBE7214803E0FFF731
:1044B000A9F9002838D0626A1E4B33F81230B0FBDD
:1044C000F3F0636800EB5300B0FBF3F0A0F11002CF
:1044D0004FF6EF739A4229D8236880B2D860002043
:1044E0000123A4F86A30A4F8683000236367A36747
:1044F00070BDFFF799F9DCE7FFF73EF8D9E74FF415
:104500000040D8E70120EBE70020E9E70120E7E7DA
:104510000120E5E70120E3E70120E1E70020DFE7F4
:104520000120DDE70120DBE70020D9E70120D7E704
:104530000024F400B8B60008836A13F0080F06D010
:104540000268536823F40043816B0B435360836A12
:1045500013F0010F06D00268536823F40033C16AD8
:104560000B435360836A13F0020F06D0026853684E
:1045700023F48033016B0B435360836A13F0040F01
:1045800006D00268536823F48023416B0B435360C9
:10459000836A13F0100F06D00268936823F48053E7
:1045A000C16B0B439360836A13F0200F06D002683F
:1045B000936823F40053016C0B439360836A13F0F8
:1045C000400F0AD00268536823F48013416C0B43F8
:1045D0005360436CB3F5801F0BD0836A13F0800FD8
:1045E00006D00268536823F40023C16C0B43536068
:1045F00070470268536823F4C003816C0B43536017
:10460000EBE72DE9F84305460E4617469946DDF8D7
:1046100020802C68E46936EA04030CBF4FF0010CDB
:104620004FF0000CBC4536D1B8F1FF3FF1D0FDF79B
:10463000F9FCA0EB0900404530D8B8F1000F2FD0AD
:104640002B681A6812F0040FE3D0802EE1D0402EC0
:10465000DFD0DA6912F0080F11D1DA6912F4006FB5
:10466000D7D04FF400621A622846FFF7C4FA20231D
:10467000C5F89030002385F8843003200CE008242E
:104680001C622846FFF7B7FAC5F89040002385F86A
:104690008430012000E00020BDE8F8830320FBE720
:1046A0000320F9E72DE9F04182B01E46D0F88830AA
:1046B000202B5AD104460D469046002959D00AB9FC
:1046C000012053E00023C0F890302123C0F8883047
:1046D000FDF7A8FC0746A4F85480A4F85680A36808
:1046E000B3F5805F02D04FF0000816E0236943B3B2
:1046F0004FF0000811E02023C4F88830032035E093
:1047000038F8023B2268C3F308039362B4F85620DA
:1047100092B2013A92B2A4F85620B4F856309BB245
:1047200093B100963B46002280212046FFF769FFA7
:104730000028E0D1002DE3D015F8012B23689A6200
:10474000E4E7A8460025E8E700963B460022402122
:104750002046FFF756FF18B92023C4F8883005E03B
:104760002023C4F88830032000E0022002B0BDE816
:10477000F0810120FAE72DE9F04383B01E46D0F81E
:104780008C30202B7DD104460D46904600297CD0EC
:104790000AB9012076E00023C0F890302222C0F848
:1047A0008C20C366FDF73EFC0746A4F85C80A4F8A5
:1047B0005E80A368B3F5805F06D0A3B9226972B9A1
:1047C000FF22A4F8602014E0226922B940F2FF120F
:1047D000A4F860200DE0FF22A4F8602009E07F2209
:1047E000A4F8602005E0B3F1805F0AD00022A4F8AD
:1047F0006020B4F86080B3F5805F0CD04FF0000902
:1048000023E022691AB97F22A4F86020F1E73F2251
:10481000A4F86020EDE7236913B14FF0000914E01C
:10482000A946002511E02023C4F88C30032029E09C
:1048300023685B6A08EA030329F8023BB4F85E20A8
:1048400092B2013A92B2A4F85E20B4F85E309BB204
:1048500093B100963B46002220212046FFF7D1FE6F
:104860000028E0D1002DE3D023685A6A5FFA88F36C
:10487000134005F8013BE1E72023C4F88C30002009
:1048800000E0022003B0BDE8F0830120FAE730B574
:1048900083B004460023C0F89030FDF7C3FB054603
:1048A0002268126812F0080F10D123681B6813F0F9
:1048B000040F28D12023C4F88830C4F88C3000209D
:1048C000E066206784F8840003B030BD6FF07E435B
:1048D0000093034600224FF400112046FFF791FE9B
:1048E0000028E2D0226852E8003F23F0800342E82B
:1048F00000310029F6D12023C4F88830002384F841
:1049000084300320E0E76FF07E4300932B460022C3
:104910004FF480012046FFF774FE0028CAD02268B9
:1049200052E8003F23F4907342E800310029F6D1A9
:10493000226802F1080353E8003F23F00103083224
:1049400042E800310029F3D12023C4F88C30002341
:1049500084F884300320B7E778B310B50446D0F864
:1049600088300BB32423C4F888302268136823F0FE
:1049700001031360A36AE3B92046FFF719FC01287D
:1049800011D02268536823F49043536022689368DF
:1049900023F02A0393602268136843F00103136035
:1049A0002046FFF774FF10BD80F88430FDF7F4F95E
:1049B000D8E72046FFF7C0FDDEE701207047000082
:1049C00010B5044613468165A0F85C200022C0F8AB
:1049D00090202222C0F88C20D0F88020AAB1214952
:1049E000D162D0F8802020491163D0F880201F497F
:1049F0005163D0F88020002191630168826D2431D9
:104A0000D0F88000FDF760FC20BB236943B1226829
:104A100052E8003F43F4807342E800310029F6D1A8
:104A2000226802F1080353E8003F43F00103083213
:104A300042E800310029F3D1226802F1080353E86B
:104A4000003F43F04003083242E800310029F3D12F
:104A5000002010BD1023C4F890302023C4F88C30FF
:104A60000120F6E71D410008FD4000082B3D00082D
:104A700038B5D0F88C30202B17D1C1B1CAB1002382
:104A8000C36603680C4CA3420CD05B6813F4000FA0
:104A900008D0046854E8003F43F0806344E80035E0
:104AA000002DF6D1FFF78CFF00E0022038BD012079
:104AB000FCE70120FAE700BF00800040436E2BB9FD
:104AC0000123A0F86A30A0F86830704730B403685A
:104AD0009A68C2F342629968490F094D6B5CDB002A
:104AE000084C615C93FBF1F3A0F86A30AB5CDB002F
:104AF000A25C93FBF2F3A0F8683030BC704700BFB3
:104B0000D8B60008D0B6000870477047704790F8D4
:104B10008430012B18D0012380F884302423C0F87E
:104B2000883003681A68196821F00101196022F0C1
:104B300000520023436601680A602022C0F88820E2
:104B400080F88430184670470220704738B590F8D6
:104B50008430012B1DD00446012380F884302423A7
:104B6000C0F8883003681D681A6822F001021A60D4
:104B70000268936823F0604319439160FFF79EFF3A
:104B800023681D602023C4F88830002084F8840046
:104B900038BD0220FCE738B590F88430012B1DD0D9
:104BA0000446012380F884302423C0F88830036849
:104BB0001D681A6822F001021A600268936823F0E7
:104BC000606319439160FFF779FF23681D6020231C
:104BD000C4F88830002084F8840038BD0220FCE747
:104BE00010B58EB000230893099302220A92012285
:104BF0000B9247F6FE720C920D9308A92148FDF71F
:104C0000F9FD002832D11F4C2046FDF743FE00225B
:104C100001212046FDF736FF58BB012400942346AE
:104C2000022211461748FDF715FE00230293039454
:104C300004930594069340F2FF73079302A9124868
:104C4000FDF7D8FDC0B9104C2046FDF723FE002229
:104C500001212046FDF716FF88B9012300930222A7
:104C600011460948FDF7F6FD0EB010BDFCF71AFF1E
:104C7000C9E7FCF717FFD0E7FCF714FFE3E7FCF701
:104C800011FFEAE7D80900203C0A002030B58DB0BA
:104C90000446BDF940C0BDF94400039100210491D0
:104CA0000591082506950791089109910A910B91A4
:104CB00042FA05F18DF804108DF8052043FA05F24B
:104CC0008DF806208DF807309DF941308DF80830B9
:104CD0008DF809C09DF945308DF80A308DF80B002C
:104CE0002046FDF7C9FE0028FAD001AA03A92046F4
:104CF000FDF7E7FD08B90DB030BDFCF7D3FEFAE7CC
:104D000010B50446836943B908784A7842EA00221C
:104D1000628062820133A36110BD438883820A7876
:104D2000487840EA0220608091F802C0CA7842EADE
:104D30000C22A28091F804C04A7942EA0C22E28057
:104D40008A792272C31AB3F5805F1ADBB4F9103086
:104D5000013B2382B4F9103000EB4330638AC01A60
:104D6000E060FBF733FDFBF7CFFB0022094BFCF7BC
:104D700061FA0022084BFCF75DFAFBF71DFCE061CD
:104D8000CAE713F5805FE5DCB4F910300133238204
:104D9000E0E700BF008076400000203F11F0010FE7
:104DA00003D00268194B9A4200D0704700B58DB00D
:104DB0006B4602AA4021FDF7ADFD40B9029BA3F26C
:104DC0000122032A0CD9A3F20522032A13D9104B7E
:104DD0001A68536D43F0010353650DB05DF804FB91
:104DE000013BDBB20B4A137069460B4800EB4310E2
:104DF000FFF786FFEBE7013BDBB2064A137069461B
:104E0000054800EB4310FFF77BFFE0E70068004038
:104E10003C0A0020F00D0020F40D0020F8B50446F7
:104E20000F4615461E460068FBF7B8FE48B12946F6
:104E30006068FBF7B3FE20B13146A068FBF7AEFE19
:104E400098B927606560A660069B63630798FBF7C7
:104E5000D7FEA0630023E36023616361A361E36283
:104E60002363E36123626362A362F8BD10B5044665
:104E7000016042608360029B43630398FBF7C0FEBE
:104E8000A0630023E36023616361A361E3622363A2
:104E9000E36123626362A36210BD2DE9F843044617
:104EA000084611461E46E0602261FBF7D9FB054625
:104EB0006061E16AFBF7D6FB0746E062D4F8348014
:104EC00000214046FBF76AFE78B908F100494946DF
:104ED0003846FBF76DFE08B1C4F82C90E16A4046F5
:104EE000FBF766FE08B1C4F82C80A1692846FBF7E1
:104EF000B7FB07462063D4F83880B8F1000F0BD019
:104F00004046FBF763FC814601463846FBF76EFEE0
:104F100000282AD0C4F8309021682846FBF7AAFC64
:104F20008046E061E16A6068FBF7A4FC814620628C
:104F3000216BA068FBF79EFC07466062494640462D
:104F4000FBF790FB01463846FBF78CFBFBF758FE5E
:104F5000FBF73CFC0746A062A5613146FBF746FE25
:104F600088B1A662A06ABDE8F883C8F10000FBF72B
:104F70002DFC804601463846FBF71AFE0028CBD0B0
:104F8000C4F83080C8E706F1004631463846FBF7E2
:104F90000FFE0028E6D0A662E4E7000008B503781B
:104FA000C52B00D008BD83795C2BFBD14378233B14
:104FB000132B6BD8DFE803F0525E6A6A6A6A6A6A8A
:104FC0006A6A6A6A6A6A0A16222E3A46314B8278FF
:104FD0001A70C2785A7002799A704279DA701B6836
:104FE0000B60DFE782782B4B1A71C2785A71027915
:104FF0009A714279DA715B684B60D3E78278254B0E
:105000001A72C2785A7202799A724279DA729B687D
:105010008B60C7E782781F4B1A73C2785A73027984
:105020009A734279DA73DB68CB60BBE78278194BFD
:105030001A74C2785A7402799A744279DA741B69C4
:105040000B61AFE78278134B1A75C2785A750279F3
:105050009A754279DA755B694B61A3E782780D4BEB
:105060001A76C2785A7602799A764279DA769B690C
:105070008B6197E78278074B1A77C2785A77027963
:105080009A774279DA77DB69CB618BE7024800F0E7
:10509000F7FA87E78C0F0020E0B600082DE9F04F03
:1050A00099B042F21073994205D0504800F0E8FAE6
:1050B00019B0BDE8F08F0446013AD5B24C4E002736
:1050C00001970097B368726831684A48FFF7A6FEF7
:1050D0000197009773693269F1684748FFF79EFEB0
:1050E000AA2C5ED0AB2C6AD0424C00260196A06A56
:1050F000FBF786FD00B200903346324640F2FF11C6
:105100003E48FFF7C3FD3E4A02EB4512B2F90430B8
:105110001393D2691492384BDD681595256866683B
:10512000A768D3F80080D3F80490D3F808A0D4F887
:1051300028B0E068FBF7E8F9CDE916015846FBF71F
:105140005FFD10905046FBF7DFF9CDE90E014846B0
:10515000FBF7DAF9CDE90C014046FBF7D5F9CDE9CB
:105160000A013846FBF7D0F9CDE908013046FBF7D4
:10517000CBF9CDE906012846FBF7C6F9CDE90401D4
:105180001598FBF7C1F9CDE902011498FBF7BCF9BA
:10519000CDE90001DDE9162313991A4800F00EFA53
:1051A00086E7174B03EB4513B3F90400FBF70EFB3F
:1051B0000246154BB1690F48FFF76FFE94E7104C9C
:1051C00004EB45140C4E114BE2690949C96930469C
:1051D000FFF763FEB4F90400FBF7F8FA02460A4B46
:1051E000B16A0448FFF759FE7EE700BF20B7000808
:1051F0006C0F0020300F0020F40E00203C0A00202D
:10520000F40D0020F0B6000800401C4600007A456E
:1052100008B5054B1860054B186800230222194693
:10522000806800F035FA08BDAC0F00200C000020AB
:10523000022801D80120704708B500F043F909237E
:105240000360002008BD000010B5013801280AD80D
:1052500014464FF0FF3392B207480068FFF722FA76
:1052600040B9204610BD00F02DF9092303604FF02E
:10527000FF30F7E70520F5E7AC0F0020022801D842
:105280000020704708B500F01DF9092303604FF0B6
:10529000FF3008BD08B500F015F9092303604FF091
:1052A000FF3008BD08B548B94FF0FF330122084868
:1052B0000068FFF760FA40B9012008BD00F002F96C
:1052C000092303604FF0FF30F7E70520F5E700BF43
:1052D000AC0F002008B5022804D84FF400534B60EF
:1052E000002008BD00F0EEF809230360F8E7000095
:1052F00000B58DB0412303930023049305930693D7
:105300000793089309930A930B930848FDF7B4FB9E
:105310000028FAD001AA03A90448FDF7D2FA10B96F
:105320000DB05DF804FBFCF7BDFBF9E7D8090020E0
:105330002DE9F0418CB00C4617461D463349FBF76A
:1053400099FA3349FBF74AFB3249FBF78BF9804660
:1053500031492046FBF78EFA2D49FBF73FFB2F49D9
:10536000FBF780F904462E492846FBF783FA0646E8
:1053700026491298FBF77EFA2549FBF72FFB2549B2
:10538000FBF770F9054681230393002304930593EB
:10539000082206920793089309930A930B934046B9
:1053A000FBF72EFC8DF8040003128DF80530204623
:1053B000FBF726FC8DF80600C0F305243846FBF702
:1053C0001FFC44EA80138DF8073082108DF8082006
:1053D0003046FBF715FC8DF809002846FBF710FC5A
:1053E0008DF80A0000128DF80B000E48FDF744FB03
:1053F0000028FAD001AA03A90A48FDF762FA10B9F9
:105400000CB0BDE8F081FCF74DFBF9E700FF7F47EA
:105410000000A04200FFFF4600FC7F4600FCFF4565
:105420000000A040D809002000B583B00021009101
:10543000034B044AFFF77CFF03B05DF804FB00BF99
:105440000000A0400000484208B5082242F2107156
:10545000AB20FFF723FE4FF480510548FDF757FDC1
:105460000448FFF7E1FF4FF47A70FCF7E1FD08BD57
:10547000001000480000A04010B582B0FFF7B0FB5C
:105480000A220C490C48FFF7F3FAFFF731FF00241A
:10549000019400942346224621460848FFF7E6FC83
:1054A000019400942346224621460548FFF7DEFC7E
:1054B00002B010BDB00F0020580D0020300F0020AA
:1054C000F40E0020014B1868704700BF0C0000204C
:1054D00070B50D4E0D4D761BB61006D0002455F854
:1054E000043B01349847A642F9D1094E094D761B79
:1054F00006F0C2F8B61006D0002455F8043B01347B
:105500009847A642F9D170BD30BB000830BB0008F7
:1055100038BB000830BB0008830730B548D0541EA4
:10552000002A3FD0CAB2034601E0013C3AD303F857
:10553000012B9D07F9D1032C2DD9CDB245EA0525C4
:105540000F2C45EA054536D9A4F1100222F00F0CC4
:1055500003F1200EE6444FEA121C03F1100242E967
:10556000045542E9025510327245F8D10CF101029E
:1055700014F00C0F03EB021204F00F0C13D0ACF17B
:10558000040323F003030433134442F8045B9342FF
:10559000FBD10CF003042CB1CAB21C4403F8012B5C
:1055A0009C42FBD130BD64461346002CF4D1F9E790
:1055B00003461446BFE71A46A446E0E70FB400B519
:1055C000074983B004AB086853F8042B8168019342
:1055D00000F036F903B05DF804EB04B0704700BF8B
:1055E0000C00002070B5054688B008460C46FBF755
:1055F000C7FC224EAA6B059001214318CDE9066134
:1056000004A8022104940393AC680190029122B390
:10561000636E13F0010FB4F90C309AB201D1980502
:1056200025D5910406D4626E43F4005322F400524F
:10563000A3816266284601AA214603F0DDF9636E64
:10564000002814BF4FF0FF350A25DA0702D4A389DA
:105650009B0506D5284608B070BD284602F0CEFF4F
:10566000D6E7A06D03F06AFB284608B070BDA06DB8
:1056700003F062FBB4F90C309AB2D2E72CB7000801
:10568000024B01461868FFF7ADBF00BF0C000020B9
:105690002DE9F043694CD4F8008083B004460E46EF
:1056A00017461D46B8F1000F03D0D8F83830002B4C
:1056B00077D0022F05D0012F00F2AC80002DC0F270
:1056C000A980636EDA0752D52146404602F062FF98
:1056D000216B41B104F14003994202D0404603F0EE
:1056E00085F800232363B4F90CC000231CF0800F5D
:1056F000A361636064D12CF44A6C2CF0030C022F7C
:10570000A4F80CC06AD001AB6A462146404603F0BB
:1057100087FBA3891843A081002D2FD0002E2ED007
:10572000D8F83830002B38D0009B2660AB42B4F953
:105730000C301CBF43F40063A381012F04BF43F06E
:105740000103A3819AB213F00803C4E904652CD0C5
:10575000D1075DD56D42A561656E002315F0010589
:10576000A36027D00025284603B0BDE8F083A389B5
:105770009B05A9D4A06D03F0DFFAA5E7009D28469C
:1057800003F07EFB0646002847D0A38943F0800340
:10579000A381D8F83830002BC6D1404602F02EFF46
:1057A000C2E7404602F02AFF83E7A360656E15F06A
:1057B0000105D7D1930524D5284603B0BDE8F08371
:1057C0002169404603F012F8B4F90CC02CF44A6C7D
:1057D0002CF0030C022FA4F80CC094D10025002259
:1057E00004F14303A2600122C4E904322360636E22
:1057F0004CF0020CD807A4F80CC0DDD41CF4007FD8
:10580000DAD1A06D03F09AFA284603B0BDE8F08320
:10581000A560CBE74FF0FF35CEE7DDF80090A94556
:1058200004D0484603F02CFB064620B9B4F90CC05E
:105830004FF0FF35D3E74D46A7E700BF0C0000202F
:105840002DE9F04FD5B01C460791914605460990C9
:1058500003F06AFA0268179210460E94FBF790FB69
:1058600016901DB1AB6B002B00F02A82079A536E85
:10587000DD0740F13881B2F90C2091B28F0409D4D0
:10588000079B42F400529A8191B21A465B6E23F450
:10589000005353660E0740F1CB80079B1B69002B1A
:1058A00000F0C68001F01A030A2B00F0CF8000241C
:1058B0002BAB4D46CDE92944CDE91944CDE91B4434
:1058C000129428939846189400230B940024CDE951
:1058D00014342B78002B00F09D81AA4604E01AF8BE
:1058E000013F002B00F0C780252BF8D1BAEB05064D
:1058F00040F0C5809AF80030002B00F08B81002327
:105900004FF0FF329AF801608DF883300A930AF164
:10591000010A08921F462B244FF020090AF1010AC0
:10592000A6F120035A2B00F2ED80DFE813F0EB0222
:10593000EB00EB00E602EB00EB00EB006A00EB0093
:10594000EB005C028002EB0067028A02EB0085023A
:105950005B005B005B005B005B005B005B005B006F
:105960005B00EB00EB00EB00EB00EB00EB00EB006F
:105970007A01EB00F801D2017A017A017A01EB0099
:10598000EB00EB00EB00E102EB00EB002D02EB0083
:10599000EB00EB000202EB00A402EB00EB0083073C
:1059A000EB00EB00EB00EB00EB00EB00EB00EB009F
:1059B0007A01EB00F801D4017A017A017A01C70279
:1059C000D401CD01EB00D402EB006C022F02B50232
:1059D000CD01EB0002027E008007EB00EB006107C7
:1059E000EB007E00A6F1300300221AF8016B02EBF7
:1059F000820203EB4202A6F13003092BF5D90A9289
:105A00008EE7DDF824B0584603F08EF943681B9307
:105A10001846FBF7B5FA1C900646584603F084F981
:105A200083681993002E40F0CD869AF8006075E7E0
:105A3000079D0998294601F0ADFC002841F01C8320
:105A4000A98901F01A030A2B7FF431AF079AB2F942
:105A50000E30002BFFF62BAF536ED80702D489050A
:105A600041F13B810799099823464A4655B0BDE864
:105A7000F04F01F04FBCBAEB050600F0CB802A9B3B
:105A800033442A93299B0133072BC8E900562993F5
:105A900005DC08F108080B9B33440B932AE70799B0
:105AA000099828AA04F0C0FB80B90DF1AC08F2E710
:105AB0000799099828AA04F0B7FB002800F09B80FA
:105AC0000D9B1BB10998194602F090FE079A536E80
:105AD000D90740F1EA8093895B0601F1D9820B98DE
:105AE00055B0BDE8F08F079BB3F90C20900591B23B
:105AF0003FF5C4AE1D46986D03F01EF9B5F90C20B4
