:020000040800F2
:1000000000000220210700089D0400089F0400084A
:10001000A1040008A3040008A504000800000000D3
:10002000000000000000000000000000A70400081D
:10003000A904000800000000AB040008AD0400089B
:1000400071070008710700087107000871070008B0
:1000500071070008710700087107000871070008A0
:10006000710700087107000871070008B50400084F
:10007000C50400087107000871070008710700082F
:100080007107000871070008710700087107000870
:100090007107000871070008710700087107000860
:1000A0007107000871070008710700087107000850
:1000B0007107000871070008710700087107000840
:1000C0007107000871070008710700087107000830
:1000D0007107000871070008D504000871070008BF
:1000E0007107000871070008710700087107000810
:1000F0007107000871070008710700087107000800
:1001000071070008710700087107000871070008EF
:1001100071070008710700087107000871070008DF
:1001200071070008710700087107000871070008CF
:1001300071070008710700087107000871070008BF
:1001400071070008710700087107000871070008AF
:10015000710700087107000871070008710700089F
:10016000710700087107000871070008710700088F
:10017000710700087107000871070008710700087F
:10018000710700087107000871070008710700086F
:1001900071070008000000007107000871070008DF
:1001A000710700087107000871070008710700084F
:1001B000710700087107000871070008710700083F
:1001C000710700087107000871070008710700082F
:0801D000710700087107000827
:1001D80053B94AB9002908BF00281CBF4FF0FF31A6
:1001E8004FF0FF3000F00CB8ADF1080C6DE904CE0B
:1001F80002F098FCDDF804E0DDE9022304B0704762
:10020800704700BF10B5054C237833B9044B13B1C0
:100218000448AFF300800123237010BD10000020B4
:1002280000000000AC2F000808B5034B1BB10349C0
:100238000348AFF3008008BD000000001400002050
:10024800AC2F000800B583B0124B9A6C42F0040240
:100258009A649A6C02F004020092009A9A6C42F036
:1002680001029A649B6C03F001030193019B002235
:1002780011460B2000F018FB0B2000F025FB002294
:1002880011460C2000F010FB0C2000F01DFB03B001
:100298005DF804FB0010024008B50F480F4B0360DF
:1002A800002343608360C360037443748374202213
:1002B8004261012282610221C1610162426282625D
:1002C800C262026343638363C36300F045FD00B900
:1002D80008BD00F06FF8FBE72C0000200064004028
:1002E80010B59CB0044600211791189119911A91E4
:1002F8001B91542202A802F079FD22681A4B9A42F7
:1003080001D01CB010BD4FF4805302934FF000731E
:10031800109302A801F08EFB10BB144B9A6D42F0AB
:1003280000729A659A6D02F000720092009ADA6C77
:1003380042F00102DA64DB6C03F001030193019BD4
:100348004FF4C053179302231893002319931A9359
:1003580009231B9317A94FF0904000F0E7FDD0E761
:1003680000F028F8D9E700BF006400400010024000
:1003780084B00F4BDA6C42F02002DA64DA6C02F0D7
:1003880020020192019ADA6C42F00102DA64DA6C16
:1003980002F001020292029ADA6C42F00402DA6474
:1003A800DB6C03F004030393039B04B0704700BFA6
:1003B8000010024072B6FEE700B595B03822002161
:1003C80006A802F013FD002001900290039004900B
:1003D800059000F099FE022306934FF4807209926B
:1003E80040220A920D930E9301220F92142210922A
:1003F80011931293139306A800F040FF80B90F23BE
:100408000193032302930023039304930593042188
:100418000DEB010001F0E8F920B915B05DF804FB17
:10042800FFF7C8FFFFF7C6FF08B500F0C7F9FFF7E9
:10043800C3FFFFF79DFFFFF705FFFFF72DFF00F054
:100448004FF800F081F80A220249034802F0B2FA94
:10045800FEE700BF7C0200205001002000B583B0F9
:100468000B4B1A6E42F001021A661A6E02F0010274
:100478000092009A9A6D42F080529A659B6D03F043
:1004880080530193019B00F0C5FE03B05DF804FBA7
:1004980000100240FEE7FEE7FEE7FEE7FEE77047D2
:1004A8007047704708B500F099F908BD08B50248CB
:1004B80000F0ABFB08BD00BFF000002008B5024803
:1004C80000F0A3FB08BD00BF9000002008B502485B
:1004D80001F0FEFC08BD00BF50010020704700007D
:1004E80008B51748174B03604FF4E1334360002306
:1004F8008360C36003610C2242618361C36103624C
:100508004362836202F0CBF970B900210C4802F013
:10051800BFFA60B900210A4802F0DFFA50B908486A
:1005280002F097FA48B908BDFFF744FFEDE7FFF777
:1005380041FFEFE7FFF73EFFF1E7FFF73BFFF2E789
:10054800E40100200038014008B51748174B036044
:100558004FF4E133436000238360C36003610C22DE
:1005680042618361C36103624362836202F097F967
:1005780070B900210C4802F08BFA60B900210A48D2
:1005880002F0ABFA50B9084802F063FA48B908BD5E
:10059800FFF710FFEDE7FFF70DFFEFE7FFF70AFFA3
:1005A800F1E7FFF707FFF2E75001002000440040A1
:1005B80030B59FB00446002119911A911B911C91E6
:1005C8001D91542204A802F011FC23684A4A934260
:1005D80004D04A4A93422BD01FB030BD0123049364
:1005E80004A801F027FA00BB454B1A6E42F480427A
:1005F8001A661A6E02F480420092009ADA6C42F08F
:100608000402DA64DB6C03F004030193019B3023DA
:10061800199302231A9300231B931C9307231D93FA
:1006280019A9384800F082FCD6E7FFF7C3FEDBE7DC
:100638000223049304A801F0FDF9002852D1304B9D
:100648009A6D42F400329A659A6D02F40032029271
:10065800029ADA6C42F00102DA64DB6C03F00103FF
:100668000393039B0C23199302231A9300251B95CC
:100678001C9507231D9319A94FF0904000F056FCD4
:100688002148224B03601A2343608560C56080239C
:10069800036145618561C561056200F08DF920BB84
:1006A800194BC4F880309C6219481A4B03601B230D
:1006B8004360102383600023C3608022026143618A
:1006C8008361C361036200F077F988B9104BE3676F
:1006D8009C6200221146262000F0E6F8262000F051
:1006E800F3F879E7FFF766FEA9E7FFF763FED7E7B8
:1006F800FFF760FEEAE700BF003801400044004011
:100708000010024000080048F000002008000240E5
:10071800900000201C0002400D488546FFF7DEFED1
:100728000C480D490D4A002302E0D458C450043344
:10073800C4188C42F9D30A4A0A4C002301E013601A
:100748000432A242FBD302F0A3FBFFF76DFEFEE7E3
:1007580000000220000000201000002018300008CF
:100768001000002020040020FEE70000104B1B684A
:100778000BB90120704710B504464FF47A70B0FBEE
:10078800F3F30C4A1068B0FBF3F000F0A1F868B975
:100798000F2C01D901200AE0002221464FF0FF303A
:1007A80000F082F8044B1C60002000E0012010BD1E
:1007B80004000020000000200800002010B50320DD
:1007C80000F060F80F20FFF7D1FF10B10124204698
:1007D80010BD0446FFF742FEF9E70000034A13681C
:1007E800034909680B441360704700BF7802002072
:1007F80004000020014B1868704700BF78020020F1
:10080800002807DB00F01F02400901239340024A39
:1008180042F82030704700BF00E100E0002808DB04
:100828000901C9B200F1604000F5614080F8001389
:10083800704700F00F000901C9B2014B1954704705
:1008480014ED00E000B500F00700C0F1070CBCF1A2
:10085800040F28BF4FF0040C031D062B0FD9C31E2D
:100868004FF0FF3E0EFA0CF021EA000199400EFA13
:1008780003FE22EA0E0241EA02005DF804FB0023AF
:10088800EEE70000074AD36823F4E0631B041B0C5F
:10089800000200F4E060034343F0BF6343F4003315
:1008A800D360704700ED00E010B50446054BD868EA
:1008B800C0F30220FFF7C6FF01462046FFF7AEFF50
:1008C80010BD00BF00ED00E008B5FFF799FF08BDB7
:1008D8000138B0F1807F0BD24FF0E0235861054A10
:1008E800F02182F823100020986107221A617047CE
:1008F8000120704700ED00E010B4C46CD0F850C07F
:10090800C4F804C0446D24B1846DD0F85CC0C4F848
:1009180004C0446C04F01F0C012404FA0CF4D0F851
:1009280040C0CCF80440046863608368102B05D08D
:10093800036899600368DA6010BC704703689A60BE
:100948000368D960F8E7000003680C4A934213D89B
:100958000B49DBB2083B0B4AA2FB0323426C22F093
:1009680003020A448264084AC264C3F304130122DE
:1009780002FA03F3036570470449EAE707040240F3
:1009880000080240CDCCCCCC8008024020080240B0
:100998000379074A1A4492004265064A8265013B78
:1009A80003F01F03012202FA03F3C365704700BF77
:1009B8003F82001040090240002859D010B5044673
:1009C80002682C4B9A423BD82B4B13442B49A1FB72
:1009D80003131B099B004364294B0364022384F817
:1009E800253011686FF30E11A368E068034320698E
:1009F800034360690343A0690343E0690343206A32
:100A080003430B4313602046FFF79EFFA368B3F52B
:100A1800804F20D0A36C22791A60E36C226D5A6053
:100A28006368013B032B19D900236365A365E3655C
:100A38000020E063012384F8253084F8240010BDE9
:100A4800104B13440D49A1FB03131B099B0043647E
:100A58000D4B0364C2E700236360DBE72046FFF722
:100A680097FF636D00221A60A36DE26D5A60DFE79D
:100A78000120704707040240F8FFFDBFCDCCCCCC65
:100A880000000240F8FBFDBF0004024038B50446F0
:100A980090F82400012841D0012084F8240094F81B
:100AA8002500C0B2012804D0002384F82430022095
:100AB80038BD022084F825000020E06325682868F6
:100AC80020F0010028602046FFF716FF236BD3B102
:100AD8002268136843F00E031360A36C1A6812F4BB
:100AE800803F03D01A6842F480721A60636D1BB1AC
:100AF8001A6842F480721A602268136843F001038E
:100B080013600020D4E72268136823F004031360FD
:100B18002268136843F00A031360DEE70220C7E780
:100B2800034690F82520D2B2022A09D00422C263D3
:100B38000120012283F82520002283F82420704711
:100B480001680A6822F00E020A60816C0A6822F4C1
:100B580080720A6001680A6822F001020A60426C29
:100B680002F01F01006C01228A404260DA6C196DA4
:100B780051605A6D42B1116821F4807111609A6D0B
:100B8800D96D51600020D4E70020D2E708B590F86D
:100B98002530DBB2022B09D00423C363012380F87C
:100BA8002530002280F82420184608BD0268136802
:100BB80023F00E0313600268136823F00103136027
:100BC800826C136823F480731360436C03F01F0274
:100BD800016C012393404B60C36C026D5A60436DF6
:100BE80033B11A6822F480721A60836DC26D5A603C
:100BF800012380F82530002380F82430836B13B15B
:100C080098470020D1E70020CFE738B5036C196872
:100C180004682568436C03F01F0304229A400A42C3
:100C280015D015F0040F12D0236813F0200F03D14C
:100C3800236823F004032360436C03F01F02016C54
:100C4800042393404B60036B03B1984738BD0222DD
:100C58009A400A421CD015F0020F19D0236813F0ED
:100C6800200F06D1236823F00A032360012380F8AC
:100C78002530436C03F01F02016C022393404B6044
:100C8800002380F82430C36A002BDFD09847DDE7C3
:100C9800082202FA03F30B42D8D015F0080FD5D07A
:100CA800236823F00E032360436C03F01F03016CD9
:100CB800012202FA03F34B60C26380F82520002367
:100CC80080F82430436B002BC0D09847BEE7000063
:100CD80002681D4B9A422AD01C491D4B9A4228D0C3
:100CE8000164D2F8803023F4F813D0F834C043EA12
:100CF8000C43C2F8803001F1700343640268D2F8F3
:100D0800803023F07063D0F838C043EA0C63C2F82F
:100D1800803001F1B003836401F5C473C36401F545
:100D28001873036501F51E7343650B4607E009490F
:100D3800D3E701F5D461D3E7002243F8042B01F58A
:100D480054729A42F8D870470068004000A40040E6
:100D5800006C004050A70040002800F0E38038B540
:100D6800044690F85C30D3B12268936923F01003ED
:100D78009361FFF73FFD054623689A6912F0080F53
:100D880012D0FFF737FD401B0A28F5D9236E43F030
:100D980001032366032384F85C30012038BD80F802
:100DA8005D30FFF79DFADFE79A6942F001029A6128
:100DB800FFF720FD054623689A6912F0010F0DD14F
:100DC800FFF718FD401B0A28F5D9236E43F00103ED
:100DD8002366032384F85C300120DFE79A6942F038
:100DE80002029A612268504B9A4242D0237C012B1E
:100DF80045D02268936943F040039361637C012BDB
:100E080043D02268936923F480439361A37C012B28
:100E180041D02268936943F48053936122689369AF
:100E280023F44073A1680B4393612268936923F00C
:100E3800A40393612268136923F010031361E36824
:100E4800012B2ED0002B31D0022B54D0226893696D
:100E580043F0800393612268136943F01003136120
:100E6800E368032B22D12268936943F0200393613E
:100E78001CE06268A3F58063C3F80025B6E7226822
:100E8800936923F040039361B8E72268936943F4B8
:100E980080439361BAE72268936923F4805393618E
:100EA800BCE72268936943F004039361A3695A1E5F
:100EB800E369013B1B0243EA4263226A013A134396
:100EC8006269013A216843EA0243CB61A368B3F53A
:100ED800407F16D02268D2F8C030E16B0B43C2F8CD
:100EE800C0302046FFF7F4FE0020A06520660123ED
:100EF80084F85C3052E72268936943F020039361D9
:100F0800D4E7A36A013BE26A013A43EA0223226B6F
:100F1800013A43EA0213626A013A216843EA02434A
:100F2800CB60D7E7012070470064004070B582B0FD
:100F3800002365E085685E000324B44025EA0405C3
:100F4800CC68B4402C438460456825EA0C054C689D
:100F5800C4F300149C402C43446062E0DD0808356B
:100F680050F8254003F0070C4FEA8C0C4FF00F0E99
:100F78000EFA0CFE24EA0E0E0C6904FA0CF444EA8C
:100F88000E0440F8254063E0052400E0002404FA3C
:100F98000EF42C430CF1020C574D45F82C40574CDD
:100FA800A568D44325EA0206D1F804C01CF4801FC2
:100FB80001D042EA0506514DAE60ED6804EA050627
:100FC800D1F804C01CF4001F01D042EA05064B4DBD
:100FD800EE606D6804EA0506D1F804C01CF4003F11
:100FE80001D042EA0506454D6E602D682C404E68DA
:100FF80016F4803F01D042EA0504404A14600133E8
:101008000A6832FA03F474D04FF0010C0CFA03FCAE
:101018001CEA0202F3D04C6804F00304013C012CE2
:1010280088D94C6804F00304032C0CD0C4685D0014
:101038004FF0030C0CFA05FC24EA0C0C8C68AC404D
:1010480044EA0C04C4604C6804F00304022C85D004
:1010580004684FEA430E4FF0030C0CFA0EFC24EA26
:101068000C0C4C6804F0030404FA0EF444EA0C0473
:1010780004604C6814F4403FC1D0214C256E45F003
:1010880001052566246E04F001040194019C4FEAD1
:10109800930C0CF10205184C54F8255003F0030E7C
:1010A8004FEA8E0E0F2404FA0EF425EA0405B0F177
:1010B800904F3FF46BAF134CA04212D004F58064FC
:1010C800A04210D004F58064A0420ED004F58064DC
:1010D800A0420CD004F58064A0423FF455AF06242A
:1010E80055E7012453E7022451E703244FE704247A
:1010F8004DE702B070BD00BF000001400004014090
:101108000010024000040048002836D13E4B1B68FE
:1011180003F4C063B3F5806F08D03B4AD2F880303F
:1011280023F48073C2F8803000207047364AD2F822
:10113800803023F48073C2F88030136823F4C063CE
:1011480043F400731360314B1B68322202FB03F334
:101158002F4AA2FB03239B0C013300E0013B2A4AE0
:10116800526912F4806F01D0002BF7D1264B5B69CE
:1011780013F4806F44D100207047B0F5007F08D089
:10118800214A136823F4C06343F48063136000208A
:1011980070471D4B1B6803F4C063B3F5806F08D01C
:1011A800194AD2F8803043F48073C2F880300020A6
:1011B8007047154AD2F8803043F48073C2F8803003
:1011C800136823F4C06343F4007313600F4B1B6868
:1011D800322202FB03F30E4AA2FB03239B0C0133CA
:1011E80000E0013B084A526912F4806F01D0002BDD
:1011F800F7D1054B5B6913F4806F03D1002070476A
:101208000320704703207047007000400000002052
:1012180083DE1B43024A936843F48043936070471C
:1012280000700040124BDA6802F00302DB68C3F377
:1012380003130133032A11D00E48B0FBF3F00C4B13
:10124800DB68C3F3062303FB00F0094BDB68C3F339
:10125800416301335B00B0FBF3F070470648B0FB15
:10126800F3F0034BDB68C3F3062303FB00F0ECE762
:10127800001002400024F400006CDC02002800F09A
:101288004F8270B582B00446036813F0010F37D05F
:10129800A44A936803F00C03D26802F003020C2BF3
:1012A80023D0082B23D06368B3F5803F4ED0B3F525
:1012B800A02F51D09B4B1A6822F480321A601A680A
:1012C80022F480221A606368002B52D0FFF792FA4A
:1012D8000546944B1B6813F4003F11D1FFF78AFAB7
:1012E800401B6428F5D9032023E2032AD9D18D4B6A
:1012F8001B6813F4003F03D06368002B00F01282D0
:10130800236813F0020F5DD0864A936803F00C033C
:10131800D26802F003020C2B3AD0042B3AD0E368CF
:10132800002B75D07F4A136843F480731360FFF76E
:1013380061FA05467B4B1B6813F4806F5FD1FFF79A
:1013480059FA401B0228F5D90320F2E1754A1368BF
:1013580043F480331360B6E703F18043A3F53C33CD
:101368001A6842F480221A601A6842F480321A60BD
:10137800A9E7FFF73FFA05466A4B1B6813F4003FDD
:10138800BED0FFF737FA401B6428F5D90320D0E117
:10139800022AC2D1634B1B6813F4806F03D0E36841
:1013A800002B00F0C1815F4A536823F0FE43216996
:1013B80043EA016353605C4B1868FFF7D7F90028CC
:1013C80040F0B481236813F0080F4CD063699BB3D5
:1013D800544AD2F8943043F00103C2F89430FFF72E
:1013E80009FA05464F4BD3F8943013F0020F3AD15F
:1013F800FFF700FA401B0228F4D9032099E1494A73
:10140800536823F0FE43216943EA01635360D9E737
:10141800444A136823F480731360FFF7EBF9054619
:10142800404B1B6813F4806FCCD0FFF7E3F9401BE7
:101438000228F5D903207CE13A4AD2F8943023F007
:101448000103C2F89430FFF7D5F90546354BD3F8B8
:10145800943013F0020F06D0FFF7CCF9401B022896
:10146800F4D9032065E1236813F0040F00F08180AC
:101478002C4B9B6D13F0805F36D12A4B9A6D42F04E
:1014880080529A659B6D03F080530193019B01255F
:10149800264B1B6813F4807F28D0A368012B39D012
:1014A800052B45D01F4BD3F8902022F00102C3F83A
:1014B8009020D3F8902022F00402C3F89020A3686B
:1014C800002B43D0FFF796F90646164BD3F8903019
:1014D80013F0020F4CD1FFF78DF9801B41F28833CE
:1014E8009842F2D9032024E10025D1E70F4A136876
:1014F80043F480731360FFF77DF906460B4B1B68B6
:1015080013F4807FC9D1FFF775F9801B0228F5D93C
:1015180003200EE1034AD2F8903043F00103C2F8E9
:101528009030CCE700100240080000200070004016
:10153800884BD3F8902042F00402C3F89020D3F8E7
:10154800902042F00102C3F89020B8E7FFF752F963
:101558000646804BD3F8903013F0020F08D0FFF7FF
:1015680049F9801B41F288339842F2D90320E0E020
:10157800E5B9236813F0200F35D0A369E3B1754AA4
:10158800D2F8983043F00103C2F89830FFF732F9E7
:101598000546704BD3F8983013F0020F23D1FFF7AC
:1015A80029F9401B0228F4D90320C2E0694A936D47
:1015B80023F080539365DCE7664AD2F8983023F02D
:1015C8000103C2F89830FFF715F90546614BD3F8C7
:1015D800983013F0020F06D0FFF70CF9401B0228D1
:1015E800F4D90320A5E0E369002B00F0A180594A53
:1015F800926802F00C020C2A64D0022B13D0554AD0
:10160800136823F080731360FFF7F4F80446514B16
:101618001B6813F0007F4ED0FFF7ECF8001B022880
:10162800F5D9032085E04B4A136823F080731360D3
:10163800FFF7E0F80546474B1B6813F0007F06D01C
:10164800FFF7D8F8401B0228F5D9032071E0414A7A
:10165800D36841491940236A606A013843EA001394
:10166800A06A43EA0023206B4008013843EA40534C
:10167800606B4008013843EA4063E06A43EAC063AC
:101688001943D160136843F080731360D36843F043
:101698008073D360FFF7AEF804462E4B1B6813F037
:1016A800007F06D1FFF7A6F8001B0228F5D9032012
:1016B8003FE000203DE0274AD168284B0B40D3602B
:1016C800002036E0012B36D0224BDB6803F0030103
:1016D800226A914231D103F0F002616A0139B2EB1A
:1016E800011F2CD103F4FE42A16AB2EB012F28D1CD
:1016F80003F07842E16AB2EBC16F24D103F4C00170
:10170800226B5208013AB1EB425F1ED103F0C0636D
:10171800626B5208013AB3EB426F18D1002008E01F
:1017280001207047012004E0012002E0012000E0D0
:10173800002002B070BD0120FBE70120F9E701207D
:10174800F7E70120F5E70120F3E70120F1E70120A1
:10175800EFE700BF001002400C809F01FCFFEEFE87
:101768001E4B9B6803F00C03042B33D01B4B9B6868
:1017780003F00C03082B2FD0184B9B6803F00C03C5
:101788000C2B01D000207047144BDA6802F00302DA
:10179800DB68C3F303130133032A11D01048B0FBED
:1017A800F3F00E4BDB68C3F3062303FB00F00B4B8F
:1017B800DB68C3F3416301335B00B0FBF3F07047B0
:1017C8000848B0FBF3F0054BDB68C3F3062303FBC3
:1017D80000F0ECE7024870470248704700100240EA
:1017E8000024F400006CDC02002800F0E680F8B564
:1017F8000C460546744B1B6803F00F038B420BD253
:10180800714A136823F00F030B431360136803F046
:101818000F038B4240F0D3802E6816F001065FD08C
:101828006B68032B2FD0022B4DD0684B1B6813F429
:10183800806F00F0C680FFF793FF654B98424DD943
:10184800624A936823F0F00343F080039360802694
:101858005E4A936823F0030369680B439360FEF7BD
:10186800C9FF0746594B9B6803F00C036A68B3EB42
:10187800820F35D0FEF7BEFFC01B41F28833984275
:10188800F0D9032078E0514B1B6813F0007F01D199
:10189800012071E0FFF7C6FC4D4B98421AD94B4B1B
:1018A8009B6813F0F00F05D02E6816F00206CFD013
:1018B800AB688BB9454A936823F0F00343F0800383
:1018C80093608026C4E7414B1B6813F4003FB2D1F4
:1018D800012051E00026BBE70026B9E70026B7E75C
:1018E8002B6813F0020F48D013F0040F04D0374AC6
:1018F800936843F4E06393602B6813F0080F06D0F5
:10190800324A936823F47C5343F4E06393602F4A8C
:10191800936823F0F003A9680B4393602A4B1B6874
:1019280003F00F03A34230D82B6813F0040F06D03E
:10193800264A936823F4E063E9680B4393602B68B5
:1019480013F0080F07D0214A936823F460532969DC
:1019580043EAC1039360FFF703FF1C4B9B68C3F383
:1019680003131C4AD35C03F01F03D8401A4B1860BA
:101978001A4B1868FEF7FAFEF8BD802ECED1134A2E
:10198800936823F0F0039360C8E70F4A136823F0C5
:101998000F0323431360FEF72DFF06460A4B1B680F
:1019A80003F00F03A342BFD0FEF724FF801B41F2D0
:1019B80088339842F2D90320DEE7012070470120DE
:1019C800DAE70120D8E700BF0020024000100240FB
:1019D80000B4C404CC2F0008000000200800002038
:1019E800014B1868704700BF0000002008B5FFF7DA
:1019F800F7FF054B9B68C3F30223044AD35C03F04B
:101A08001F03D84008BD00BF00100240C42F0008C3
:101A180008B5FFF7E5FF054B9B68C3F3C223044AEB
:101A2800D35C03F01F03D84008BD00BF001002407C
:101A3800C42F0008F0B583B00446036813F4002FE0
:101A48006ED0354B9B6D13F0805F1ED1324B9A6D73
:101A580042F080529A659B6D03F080530193019B7D
:101A680001262E4A136843F480731360FEF7C2FE02
:101A780005462A4B1B6813F4807F08D1FEF7BAFE8F
:101A8800401B0228F5D9032502E00026E9E70025D6
:101A980045BB214BD3F8903013F4407315D0226D19
:101AA8009A4212D01C4AD2F8903023F44073D2F8EC
:101AB800901041F48031C2F89010D2F8901021F4BF
:101AC8008031C2F89010C2F8903013F0010F10D195
:101AD80045B9114AD2F8903023F44073216D0B4375
:101AE800C2F89030EEB10C4A936D23F080539365A1
:101AF80017E0FEF77FFE0746074BD3F8903013F048
:101B0800020FE5D1FEF776FEC01B41F288339842FA
:101B1800F2D90325DCE700BF001002400070004046
:101B28000025236813F0010F08D09F4AD2F88830A7
:101B380023F0030361680B43C2F88830236813F06D
:101B4800020F08D0984AD2F8883023F00C03A16815
:101B58000B43C2F88830236813F0040F08D0924A68
:101B6800D2F8883023F03003E1680B43C2F888309C
:101B7800236813F0080F08D08B4AD2F8883023F076
:101B8800C00321690B43C2F88830236813F0100F93
:101B980008D0854AD2F8883023F4407361690B4332
:101BA800C2F88830236813F0200F08D07E4AD2F894
:101BB800883023F44063A1690B43C2F88830236856
:101BC80013F0400F08D0784AD2F8883023F44053F5
:101BD800E1690B43C2F88830236813F0800F08D0FE
:101BE800714AD2F8883023F44043216A0B43C2F883
:101BF8008830236813F4807F08D06B4AD2F8883085
:101C080023F44033616A0B43C2F88830236813F425
:101C1800003F08D0644AD2F89C3023F00303A16A3D
:101C28000B43C2F89C30236813F4007F08D05E4A47
:101C3800D2F8883023F44023E16A0B43C2F8883095
:101C4800236813F4806F0CD0574AD2F8883023F4F5
:101C58004013216B0B43C2F88830236BB3F5801F08
:101C680079D0236813F4006F0CD04F4AD2F888302B
:101C780023F44003616B0B43C2F88830636BB3F500
:101C8800800F6DD0236813F4805F0CD0464AD2F8D9
:101C9800883023F04073A16B0B43C2F88830A36BE4
:101CA800B3F1807F61D0236813F4005F0CD03E4A03
:101CB800D2F8883023F04063E16B0B43C2F88830D8
:101CC800E36BB3F1006F55D0236813F4804F0CD049
:101CD800354AD2F8883023F04063216C0B43C2F8B0
:101CE8008830236CB3F1006F49D0236813F4004F98
:101CF8000CD02D4AD2F8883023F04053616C0B4346
:101D0800C2F88830636CB3F1805F3DD0236813F468
:101D1800803F0CD0244AD2F8883023F04043A16C8D
:101D28000B43C2F88830A36CB3F1804F31D02368DD
:101D380013F4802F0CD01C4AD2F89C3023F44013A3
:101D4800E16C0B43C2F89C30E36CB3F5001F25D05F
:101D5800284603B0F0BDD36843F48013D36080E70E
:101D6800D36843F48013D3608CE7D36843F48013BB
:101D7800D36098E7D36843F48013D360A4E7D368AB
:101D880043F48013D360B0E7D36843F48033D3605F
:101D9800BCE7D36843F48033D360C8E7D36843F41F
:101DA8008013D360D4E700BF00100240026852E8F5
:101DB800003F23F0C00342E800310029F6D1026851
:101DC80002F1080353E8003F23F40003083242E815
:101DD80000310029F3D12023C0F888307047026809
:101DE80052E8003F23F4907342E800310029F6D10D
:101DF800026802F1080353E8003F23F0805323F000
:101E08000103083242E800310029F1D1C36E012BE9
:101E180006D02023C0F88C300023C3664367704780
:101E2800026852E8003F23F0100342E8003100291D
:101E3800F6D1EEE7704708B5026852E8003F23F094
:101E4800400342E800310029F6D12023C0F8883049
:101E580000238367FFF7EEFF08BD704770477047A0
:101E680038B5846AD4F88820D4F88C5023689B68E5
:101E780013F0800F01D0212A10D023689B6813F03B
:101E8800400F01D0222D10D0D4F8903043F0100329
:101E9800C4F890302046FFF7E2FF38BD0023A4F8CD
:101EA80056302046FFF782FFE7E70023A4F85E30AC
:101EB8002046FFF794FFE7E708B5806A0023A0F8FB
:101EC8005E30A0F85630FFF7CAFF08BD7047000023
:101ED80070B504460268D3691068916840F60F0C23
:101EE80013EA0C0F0DD113F0200F10D010F0200FB3
:101EF80002D111F0805F0AD0636F93B320469847F0
:101F08002FE09D4D0D402DD19C4E30422AD1E56EDB
:101F1800012D00F0C08013F4801F03D011F4800F4E
:101F280040F06C8113F0800F07D010F0800F40F064
:101F38006C8111F4000F40F0688113F0400F03D05A
:101F480010F0400F40F0688113F4000F03D010F038
:101F5800804F40F0658113F0807F02D00028C0F2E6
:101F6800638170BD13F0010F09D010F4807F06D093
:101F780001261662D4F890203243C4F8902013F05A
:101F8800020F0BD011F0010F08D02268022616624A
:101F9800D4F8902042F00402C4F8902013F0040F03
:101FA8000BD011F0010F08D0226804261662D4F86D
:101FB800902042F00202C4F8902013F0080F0BD0D2
:101FC80010F0200F00D13DB1226808251562D4F821
:101FD80090202A43C4F8902013F4006F0CD010F01E
:101FE800806F09D022684FF400651562D4F89020FC
:101FF80042F02002C4F89020D4F89020002AB0D0F3
:1020080013F0200F09D010F0200F02D111F0805FDB
:1020180003D0636F0BB120469847D4F8902023680B
:102028009B6813F0400F02D112F0280F2CD02046E5
:10203800FFF7D5FE23689B6813F0400F20D0226875
:1020480002F1080353E8003F23F04003083242E856
:1020580000310029F3D1D4F880306BB1484A9A6333
:10206800D4F88000FEF792FD00283FF47AAFD4F848
:102078008000836B984774E72046FFF7F0FE70E70F
:102088002046FFF7ECFE6CE72046FFF7E8FE00234A
:10209800C4F8903065E713F0100F3FF43CAF10F030
:1020A800100F3FF438AF1023136223689B6813F0B6
:1020B800400F67D0D4F880100A6853689BB2002B91
:1020C8004AD0B4F85C00984246D9A4F85E300B6850
:1020D8001B6813F0200F32D1226852E8003F23F426
:1020E800807342E800310029F6D1226802F1080322
:1020F80053E8003F23F00103083242E80031002989
:10210800F3D1226802F1080353E8003F23F04003AB
:10211800083242E800310029F3D12023C4F88C307A
:102128000023E366226852E8003F23F0100342E8E8
:1021380000310029F6D1D4F88000FEF7F1FC022323
:102148002367B4F85C10B4F85E309BB2C91A89B240
:102158002046FFF7BBFE04E7B4F85C1099427FF411
:1021680000AF136813F0200F3FF4FBAE0223236780
:102178002046FFF7ABFEF4E6010000102001000442
:10218800C11E0008B4F85C10B4F85E309BB2C91ADE
:1021980089B2B4F85E309BB2002B3FF4E2AE00295E
:1021A8003FF4DFAE226852E8003F23F4907342E820
:1021B80000300028F6D1226802F1080353E8003FF6
:1021C80023F0805323F00103083242E8003000284E
:1021D800F1D12023C4F88C300023E36663672268BA
:1021E80052E8003F23F0100342E800300028F6D1FF
:1021F800022323672046FFF769FEB2E64FF48013F7
:102208001362204600F022FCABE6A36F002B3FF4DC
:10221800A8AE20469847A4E62046FFF70CFEA0E6A5
:10222800204600F015FC9CE6204600F010FC98E6DD
:1022380008B5806A01230367C36E012B02D0FFF73C
:102248000DFE08BDB0F85C104908FFF73FFEF8E73F
:1022580008B50346806A1B681B6813F0200F29D154
:102268000023A0F85E30026852E8003F23F4807330
:1022780042E800310029F6D1026802F1080353E868
:10228800003F23F00103083242E800310029F3D16E
:10229800026802F1080353E8003F23F040030832C4
:1022A80042E800310029F3D12023C0F88C30C36EF6
:1022B800012B07D000230367C36E012B0CD0FFF757
:1022C800CCFD08BD026852E8003F23F0100342E845
:1022D80000310029F6D1EDE7B0F85C10FFF7F6FD04
:1022E800EFE7000070B5044683680269134342694A
:1022F8001343C269134301680868964A02401A43A7
:102308000A602268536823F44053E1680B43536022
:10231800A1692268904B9A4201D0236A19439368B5
:1023280023F06E4323F430630B4393602268D36A2F
:1023380023F00F03616A0B43D3622368874A9342F1
:1023480026D0874A934237D0864A93424DD0864A50
:1023580093425DD0854A93426CD07F4A93427ED0A7
:1023680010227D498B4200F0B380E069B0F5004F40
:1023780000F00481082A00F26F81DFE812F03201D0
:10238800540130016D0157016D016D016D015A0154
:1023980002F55842D2F8882002F00302032A09D82D
:1023A800DFE802F0020472060122DAE70422D8E725
:1023B8000822D6E71022D4E702F5E632D2F88820C0
:1023C80002F00C020C2A0ED8DFE802F0070D0D0D02
:1023D800090D0D0D600D0D0D0B000022C1E7042243
:1023E800BFE70822BDE71022BBE702F5E432D2F8C6
:1023F800882002F03002202A4AD005D8002A49D085
:10240800102A49D10422ACE7302A47D10822A8E78C
:1024180002F5E232D2F8882002F0C002802A3FD0CA
:1024280004D8FAB3402A3FD104229AE7C02A3DD102
:10243800082296E702F5E032D2F8882002F44072CA
:10244800B2F5007F34D005D8A2B3B2F5807F33D17E
:10245800042286E7B2F5407F30D1082281E702F5F1
:10246800C832D2F8882002F44062B2F5006F27D053
:1024780005D83AB3B2F5806F26D1042271E7B2F5D8
:10248800406F23D108226CE702226AE7022268E73C
:10249800022266E7002264E7102262E7102260E762
:1024A80002225EE700225CE710225AE7102258E772
:1024B800022256E7002254E7102252E7102250E782
:1024C80002224EE700224CE710224AE7102248E792
:1024D800082A00F2B180DFE802F008AF3BAF38AF5E
:1024E800AFAF05004FF4004004E0FFF77FFA002883
:1024F80000F0A480626A1E4B33F81220B0FBF2F39E
:10250800656805EB4501994200F29A80B3EB053FF7
:1025180000F29880002633463146FDF759FE09023D
:1025280041EA106100026B08C0182A46334641F19F
:102538000001FDF74DFEA0F540720E4B9A4200F2E5
:1025480083802368D860304664E0FFF709F9CEE756
:102558000948CFE7F369FFCF008000400038014009
:102568000044004000480040004C0040005000403B
:10257800DC2F0008FFFC0F000024F400082A65D8AF
:10258800DFE802F0072705642A6464640B00354815
:1025980003E0FFF72BFA00285AD0626A324B33F86F
:1025A8001230B0FBF3F06268530803EB4003B3FB4F
:1025B800F2F3A3F110014FF6EF7291424AD89AB2A2
:1025C80022F00F02C3F3420313432268D3600020B2
:1025D80020E0FFF71DFADEE7FFF7C2F8DBE7214846
:1025E80003E0FFF703FA002838D0626A1E4B33F87D
:1025F8001230B0FBF3F0636800EB5300B0FBF3F06C
:10260800A0F110024FF6EF739A4229D8236880B2DE
:10261800D86000200123A4F86A30A4F868300023A9
:102628006367A36770BDFFF7F3F9DCE7FFF798F876
:10263800D9E74FF40040D8E70120EBE70020E9E7AD
:102648000120E7E70120E5E70120E3E70120E1E7D2
:102658000020DFE70120DDE70120DBE70020D9E7E4
:102668000120D7E70024F400DC2F0008836A13F068
:10267800080F06D00268536823F40043816B0B43AC
:102688005360836A13F0010F06D00268536823F47D
:102698000033C16A0B435360836A13F0020F06D0FC
:1026A8000268536823F48033016B0B435360836AD9
:1026B80013F0040F06D00268536823F48023416B9B
:1026C8000B435360836A13F0100F06D002689368B7
:1026D80023F48053C16B0B439360836A13F0200F7C
:1026E80006D00268936823F40053016C0B4393608F
:1026F800836A13F0400F0AD00268536823F48013EA
:10270800416C0B435360436CB3F5801F0BD0836A55
:1027180013F0800F06D00268536823F40023C16CBD
:102728000B43536070470268536823F4C003816CFD
:102738000B435360EBE72DE9F84305460E46174671
:102748009946DDF820802B68DC6936EA04040CBF62
:1027580001240024BC4236D1B8F1FF3FF3D0FEF784
:1027680049F8A0EB0900404530D8B8F1000F2FD048
:102778002B681A6812F0040FE5D0802EE3D0402EA3
:10278800E1D0DA6912F0080F11D1DA6912F4006F9A
:10279800D9D04FF400621A622846FFF720FB2023A5
:1027A800C5F89030002385F8843003200CE0082415
:1027B8001C622846FFF713FBC5F89040002385F8F4
:1027C8008430012000E00020BDE8F8830320FBE707
:1027D8000320F9E730B583B004460023C0F89030F1
:1027E800FEF708F805462268126812F0080F10D1A3
:1027F80023681B6813F0040F28D12023C4F88830FD
:10280800C4F88C300020E066206784F8840003B0A8
:1028180030BD6FF07E430093034600224FF4001151
:102828002046FFF788FF0028E2D0226852E8003FE0
:1028380023F0800342E800310029F6D12023C4F8B0
:102848008830002384F884300320E0E76FF07E436B
:1028580000932B4600224FF480012046FFF76BFFC0
:102868000028CAD0226852E8003F23F4907342E857
:1028780000310029F6D1226802F1080353E8003F2D
:1028880023F00103083242E800310029F3D1202364
:10289800C4F88C30002384F884300320B7E778B379
:1028A80010B50446D0F888300BB32423C4F8883018
:1028B8002268136823F001031360A36AE3B9204672
:1028C800FFF710FD012811D02268536823F49043C4
:1028D80053602268936823F02A0393602268136880
:1028E80043F0010313602046FFF774FF10BD80F822
:1028F8008430FDF75DFED8E72046FFF7B7FEDEE738
:102908000120704710B5044613468165A0F85C2085
:102918000022C0F890202222C0F88C20D0F8802015
:10292800AAB12149D162D0F8802020491163D0F89A
:1029380080201F495163D0F88020002191630168ED
:10294800826D2431D0F88000FEF7A0F820BB2369FF
:1029580043B1226852E8003F43F4807342E80031F3
:102968000029F6D1226802F1080353E8003F43F03A
:102978000103083242E800310029F3D1226802F14C
:10298800080353E8003F43F04003083242E80031AF
:102998000029F3D1002010BD1023C4F89030202363
:1029A800C4F88C300120F6E75922000839220008C3
:1029B800691E000838B5D0F88C30202B17D1C1B16A
:1029C800CAB10023C36603680C4CA3420CD05B68F1
:1029D80013F4000F08D0046854E8003F43F0806304
:1029E80044E80035002DF6D1FFF78CFF00E0022007
:1029F80038BD0120FCE70120FAE700BF0080004055
:102A0800436E2BB90123A0F86A30A0F868307047EC
:102A180030B403689A68C2F342629968490F094D55
:102A28006B5CDB00084C615C93FBF1F3A0F86A3047
:102A3800AB5CDB00A25C93FBF2F3A0F8683030BC1F
:102A4800704700BFFC2F0008F42F0008704770473C
:102A5800704790F88430012B18D0012380F8843017
:102A68002423C0F8883003681A68196821F0010126
:102A7800196022F000520023436601680A60202290
:102A8800C0F8882080F884301846704702207047C4
:102A980038B590F88430012B1DD00446012380F806
:102AA80084302423C0F8883003681D681A6822F02F
:102AB80001021A600268936823F060431943916029
:102AC800FFF79EFF23681D602023C4F8883000208C
:102AD80084F8840038BD0220FCE738B590F88430CB
:102AE800012B1DD00446012380F884302423C0F82C
:102AF800883003681D681A6822F001021A600268AB
:102B0800936823F0606319439160FFF779FF2368A6
:102B18001D602023C4F88830002084F8840038BD64
:102B28000220FCE72DE9F047089D0E4604460F46B3
:102B3800002B4AD194468C45B2FA82F260D942B150
:102B4800C2F12003974020FA03F30CFA02FC1F435A
:102B580094404FEA1C4E1FFA8CF6B7FBFEF1230C8B
:102B68000EFB117743EA074301FB06F098420AD9A6
:102B78001CEB030301F1FF3780F01581984240F206
:102B88001281023963441B1AA4B2B3FBFEF00EFB98
:102B9800103344EA034400FB06F6A6420AD91CEBAC
:102BA800040400F1FF3380F00081A64240F2FD806A
:102BB8006444023840EA0140A41B00211DB1D440FE
:102BC8000023C5E90043BDE8F0878B4205D90DB164
:102BD800C5E9000100210846F5E7B3FA83F10029A9
:102BE80046D1B34202D3824200F2F580841A66EBE2
:102BF800030201201746002DE5D0C5E90047E2E7AA
:102C0800002A40F09380A1EB0C034FEA1C471FFAFF
:102C18008CFE0121B3FBF7F607FB1630230C43EAC1
:102C280000430EFB06F0984208D91CEB030306F19B
:102C3800FF3802D2984200F2D08046461B1AA4B24E
:102C4800B3FBF7F007FB103344EA03440EFB00FE26
:102C5800A64508D91CEB040400F1FF3302D2A645AF
:102C680000F2B6801846A4EB0E0440EA0640A5E739
:102C7800C1F120078B4022FA07FC4CEA030C06FA44
:102C880001FE20FA07F426FA07F344EA0E0400FAD4
:102C980001F84FEA1C404FEA1449B3FBF0FE1FFA53
:102CA8008CF600FB1E3349EA03430EFB06F99945EF
:102CB80002FA01F20BD91CEB03030EF1FF3A80F084
:102CC8008580994540F28280AEF1020E6344A3EB01
:102CD8000909A4B2B9FBF0F300FB139944EA0944CB
:102CE80003FB06F6A64208D91CEB040403F1FF30E7
:102CF80068D2A64266D9023B644443EA0E40A41B4C
:102D0800A0FB02E6B4427346B14652D34FD05DB140
:102D1800B8EB030264EB090404FA07F722FA01F39B
:102D28001F43CC40C5E9007400214CE7C2F12001E3
:102D380020FA01F30CFA02FC26FA01F1964033431B
:102D48004FEA1C471FFA8CFEB1FBF7F007FB101681
:102D5800190C41EA064100FB0EF68E4204FA02F411
:102D680008D91CEB010100F1FF382DD28E422BD976
:102D780002386144891B9BB2B1FBF7F607FB1611B9
:102D880043EA014306FB0EF1994208D91CEB030301
:102D980006F1FF3814D2994212D9023E63445B1AF5
:102DA80046EA004136E73946EDE6184602E7F045BF
:102DB800ADD2BEEB020366EB0C060138B146A6E7BE
:102DC8004646ECE7034698E74046D3E7D6467EE713
:102DD8006444023847E708460DE7023E63442DE79E
:102DE800002301461A46184600F092B8830730B50A
:102DF80047D0541E002A3ED0CAB2034601E0013C27
:102E080039D303F8012B9D07F9D1032C2CD9CDB266
:102E180005EB05250F2C05EB054535D9A4F1100266
:102E280022F00F0C03F1100EE6444FEA121C1A466A
:102E3800C2E90055C2E9025510327245F8D10CF1C9
:102E4800010214F00C0F03EB021204F00F0C13D064
:102E5800ACF1040323F003030433134442F8045B86
:102E68009342FBD10CF003042CB1C9B21C4403F803
:102E7800011BA342FBD130BD64461346002CF4D19C
:102E8800F9E703461446C0E71A46A446E0E700BF40
:102E980070B50F4B0F4DAB42A3EB050607D0B6102C
:102EA800002455F8043B01349847A642F9D800F0AD
:102EB80079F8094D094B5E1BAB424FEAA60606D0CE
:102EC800002455F8043B01349847A642F9D870BD50
:102ED8000C3000080C3000080C30000814300008D2
:102EE80038B5074D074C2C1BA41005D0013C55F8EC
:102EF800043D9847002CF9D1BDE8384000F058B897
:102F08001830000814300008704700BF704700BF31
:102F18002DE9F8431B4D0646286898460F4691460A
:102F2800FFF7F2FF184B1C681CB3286865681F2D53
:102F380022DC4EB96B1C0235636044F82570FFF73C
:102F4800E5FF0020BDE8F88304EB85010123C1F803
:102F58008890D4F88821AB401A43022EC4F88821FF
:102F6800C1F80881E6D1D4F88C211A43C4F88C2121
:102F7800E0E7064C1C60D8E7FFF7C8FF4FF0FF30CA
:102F8800E0E700BF0C0000201C0400208C02002099
:102F9800024B13B10248FFF723BF7047000000003F
:102FA800E92E0008F8B500BFF8BC08BC9E4670477B
:0C2FB800F8B500BFF8BC08BC9E4670478E
:102FC40000000000010203040000000000000000F3
:102FD40001020304060708090100020004000600B8
:102FE40008000A000C0010002000400080000001CE
:102FF40008040204080101010101010307010000A2
:0830040028FBFF7F0100000022
:08300C00992F000831020008B1
:043014000D020008A1
:103018000024F400010000001000000088020020D5
:0400000508000721C7
:00000001FF
